:020000040800F2
:10000000000700208901000875050008190500088F
:1000100071050008430200084909000800000000BB
:10002000000000000000000000000000F9070008C8
:10003000A90300080000000077050008E508000893
:10004000A3010008A3010008A3010008A301000800
:10005000A3010008A3010008A3010008A3010008F0
:10006000A3010008A3010008A3010008A3010008E0
:10007000A3010008A3010008A3010008A3010008D0
:10008000A3010008A3010008A3010008A3010008C0
:10009000A3010008A3010008A3010008A3010008B0
:1000A000A3010008A3010008A3010008A3010008A0
:1000B000A3010008A3010008A3010008A301000890
:1000C000A3010008A3010008A3010008A301000880
:1000D000A3010008A3010008A3010008A301000870
:1000E000A3010008A3010008A301000800F002F822
:1000F00000F03AF80AA090E8000C82448344AAF188
:100100000107DA4501D100F02FF8AFF2090EBAE885
:100110000F0013F0010F18BFFB1A43F0010318473B
:100120000810000028100000103A24BF78C878C1D9
:10013000FAD8520724BF30C830C144BF04680C60ED
:10014000704700000023002400250026103A28BF35
:1001500078C1FBD8520728BF30C148BF0B60704739
:100160001FB51FBD10B510BD00F031F81146FFF7E7
:10017000F7FF00F00FFC00F04FF803B4FFF7F2FFB9
:1001800003BC00F057F800000948804709480047C1
:10019000FEE7FEE7FEE7FEE7FEE7FEE7FEE7FEE737
:1001A000FEE7FEE704480549054A064B7047000094
:1001B000E9080008ED000008000100200007002009
:1001C0000003002000030020704770477047754609
:1001D00000F02CF8AE4605006946534620F00700B3
:1001E000854618B020B5FFF7DDFFBDE820404FF091
:1001F00000064FF000074FF000084FF0000B21F011
:100200000701AC46ACE8C009ACE8C009ACE8C009DD
:10021000ACE8C0098D46704710B50446AFF30080C6
:100220002046BDE81040FFF7A8BF00000048704717
:100230009C00002001491820ABBEFEE7260002000A
:10024000704700BFFEE700002DE9F04F87B08246FF
:100250008B46584600F0BEFD804642460B460020C5
:100260001D4900F05FFC064600224FF0804300F07D
:1002700059FC0022194BCDE9000100F0BFFD00221E
:10028000164BCDE9020100F0B9FD044600F018FC60
:100290000590059800F0B0FE04900FE000222021A8
:1002A0000F4800F034F9049800F05CFB0122202193
:1002B0000B4800F02CF9049800F054FBBAF1000050
:1002C000AAF1010AEAD101222021054800F01FF914
:1002D00007B0BDE8F08F00000000F03F00408F4005
:1002E000000C014008B50121082000F071F9202020
:1002F000ADF8000003208DF8020010208DF80300F7
:100300006946044800F06FF801222021014800F0FE
:10031000FEF808BD000C01402DE9D04F86B08246A2
:100320008B46584600F056FD064632460B460020E6
:100330001A4900F0F7FB00224FF08043CDE900019D
:1003400000F0F0FB0022164BCDE9020100F056FD53
:10035000804600F0B5FB0490049800F0B7FE044618
:100360000FE0002220210F4800F0D1F8204600F0D5
:10037000F9FA012220210B4800F0C9F8204600F0CC
:10038000F1FABAF10000AAF1010AEAD10122202112
:10039000044800F0BCF806B0BDE8D08F0000F03F84
:1003A00000408F40000C014070470000054909687B
:1003B00021F01001034A11601146096801431160E0
:1003C000704700000020024001460020034A1068E8
:1003D00000F0380008431060704700000020024021
:1003E0000146088870472DE9F041024600250026A5
:1003F000002000230024002791F803C00CF00F0513
:1004000091F803C00CF0100CBCF1000F03D091F870
:1004100002C04CEA050591F800C0BCF1000F31D0D4
:10042000146800202BE04FF0010C0CFA00F3B1F837
:1004300000C00CEA03069E4220D183004FF00F0C4F
:100440000CFA03F7BC4305FA03FC4CEA040491F8E8
:1004500003C0BCF1280F06D14FF0010C0CFA00FCD0
:10046000C2F814C00AE091F803C0BCF1480F05D1EE
:100470004FF0010C0CFA00FCC2F810C0401C082818
:10048000D1D31460B1F800C0BCF1FF0F34DD546863
:1004900000202EE000F1080C4FF0010808FA0CF3E0
:1004A000B1F800C00CEA03069E4221D183004FF050
:1004B0000F0C0CFA03F7BC4305FA03FC4CEA0404E6
:1004C00091F803C0BCF1280F05D100F1080C08FA1F
:1004D0000CF8C2F8148091F803C0BCF1480F07D1A2
:1004E00000F1080C4FF0010808FA0CF8C2F810806F
:1004F000401C0828CED35460BDE8F081024600209D
:1005000093680B400BB1012000E0002070470AB156
:10051000016100E04161704700BFFEE708B50121BD
:10052000042000F055F80320ADF8000048208DF8B5
:10053000030003208DF8020069460248FFF753FFCD
:1005400008BD00000008014008B50121082000F0A6
:100550003FF80320ADF800008DF8020010208DF860
:10056000030069460148FFF73EFF08BD000C01404B
:1005700000BFFEE7704770472DE9F04704460025AD
:1005800002E0A41C681C85B220880028F9D1A4EBE5
:100590004504284605EBD071C1F34F07002612E051
:1005A000700034F810807000401C34F810A00AFB72
:1005B00008F04FF47A71B0FBF1F941464846FFF775
:1005C00043FE701C86B2BE42EADBBDE8F087000045
:1005D00029B1064A92690243044B9A6104E0034A36
:1005E00092698243014B9A617047000000100240FB
:1005F00010B500F02FF84FF4803000F083F800F0D1
:10060000DFF80446012C24D14FF4E011000400F07F
:10061000BDF8002000F06AF8A00200F099F8002070
:1006200000F0A2F80220FFF7CFFE1020FFF7BEFE79
:10063000012000F0A5F800BF392000F031F80028B3
:10064000FAD0022000F0B0F800BF00F047F8082808
:10065000FBD110BD0F48006840F001000D49086053
:10066000084640680C4908400A4948600846006846
:100670000A490840074908600846006820F48020BD
:1006800008600846406820F4FE0048604FF41F00F0
:1006900088607047001002400000FFF8FFFFF6FE80
:1006A00010B501460022002300204A11012A02D180
:1006B000094C236806E0022A02D1074C236A01E0B4
:1006C000054C636A01F01F02012494401C400CB1E8
:1006D000012000E0002010BD0010024002484068E8
:1006E00000F00C007047000000100240014600209E
:1006F000034A506820F0F000084350607047000043
:10070000001002401149096821F480310F4A11603C
:100710001146096821F480211160B0F5803F03D0B3
:10072000B0F5802F0ED106E00849096841F4803108
:10073000064A116007E00549096841F4A021034A0F
:10074000116000E000BF00BF7047000000100240D1
:1007500001460020034A506820F4E06008435060DE
:10076000704700000010024001460020034A506814
:1007700020F4605040EAC100506070470010024011
:10078000014908667047000000004242024600200E
:10079000044B586820F47C1042EA01031843014BD3
:1007A000586070470010024001460020034A50681C
:1007B00020F0030008435060704700000010024022
:1007C00038B5002000900024002500BF3120FFF73D
:1007D00067FF05460098401C00900098B0F5A06F98
:1007E00001D0002DF2D03120FFF75AFF08B10124CB
:1007F00000E00024204638BD704710B500F002F834
:1008000010BD00000CB50020019000903348006836
:1008100040F480303149086000BF3048006800F47F
:10082000003000900198401C0190009818B9019880
:10083000B0F5A06FF1D12948006800F4003010B184
:100840000120009001E0002000900098012843D191
:100850002348006840F010002149086008460068FD
:1008600020F0030008600846006840F002000860BD
:100870001A48406819494860084640684860084678
:10088000406840F4806048600846406820F47C106E
:1008900048600846406840F4E81048600846006830
:1008A00040F08070086000BF0C48006800F00070E5
:1008B0000028F9D00948406820F003000749486043
:1008C0000846406840F00200486000BF03484068A6
:1008D00000F00C000828F9D10CBD00000010024007
:1008E000002002407047000010B51348006840F037
:1008F00001001149086008464068104908400E4947
:100900004860084600680E4908400B4908600846E0
:10091000006820F4802008600846406820F4FE004B
:1009200048604FF41F008860FFF767FF4FF00060DA
:100930000449086010BD0000001002400000FFF8EC
:10094000FFFFF6FE08ED00E000BFFEE700B503463E
:1009500003E04FF47A7000F005F8181EA3F10103CC
:10096000F7D100BD00EBC001C9004FF0E02251619A
:10097000002191610521116100BF4FF0E02109695B
:1009800001F480310029F8D004214FF0E0221161F8
:1009900070470000FFF72CFEFFF7D6FDFFF7BEFD06
:1009A000FFF7A0FC1C48FFF7E7FD0A25002000F038
:1009B00063F8002000F072F81848FFF711FDC4B288
:1009C000204600F02FF825E001211548FFF796FD9D
:1009D00000BB2846FFF7BAFF01211148FFF78EFD43
:1009E000C0B9601CC4B2032C00DD0024204600F016
:1009F00019F80121C820FFF78FFC00BF012108482A
:100A0000FFF77CFD0028F9D041F288314FF4FA70ED
:100A1000FFF71AFCD8E700000000002000F00108F2
:100A20000008014010B5044634B1012C0BD0022C53
:100A300010D0032C1CD114E0002000F01DF8002081
:100A400000F02CF815E0012000F016F8002000F06E
:100A500025F80EE0012000F00FF8012000F01EF84C
:100A600007E0002000F008F8012000F017F800E08F
:100A700000BF00BF10BD000010B50446012C05D119
:100A8000012211460448FFF742FD04E00022012143
:100A90000148FFF73CFD10BD000C014010B50446B5
:100AA000012C05D1012202210448FFF730FD04E0AA
:100AB000002202210148FFF72AFD10BD000C014071
:100AC00021F00042A2F16052B2F5801F01F0004314
:100AD00028BFD2F17F6C0BD95FEA001C43EAC20247
:100AE00042EB507018BF704728BF20F001007047DC
:100AF000B2F5801FBCBF184670474FEA410C1CF589
:100B0000001F02D2084600F0DCBA70B500F020FAEF
:100B100000000089FFF7F6BF4FF00040A0F580000D
:100B2000704700002DE9C04130B4DFF8A0C23CEAB4
:100B3000111418BF3CEA131400F0EC8081EA03059D
:100B40001CEA111444EAD57418BF1CEA131500F00E
:100B5000C780A4EB05044FF0004545EAC12145EAF2
:100B6000C32341EA505143EA525304F17F7499423E
:100B700004F500344FEAC0204FEAC22208BF904279
:100B800000F09C804FEA13650FF24016765D4FEA45
:100B9000134506FB05F7C7F1807706FB07F74FEA19
:100BA000D737A7FB03687642C8F58038A7FB06CE87
:100BB00038BFA8F1010807FB08E64FF0000EA6FBBE
:100BC000028CE6FB03CEDCF1000CCEF1004E38BF08
:100BD000AEF1010EA6FB0C584FF000074FF00005D8
:100BE000E6FB0E87A1FB08C6A0FB07CE16EB0E06A0
:100BF00045F10005E1FB076515F1E04E7EBFA4F568
:100C000080345FEA46066D4116F1800745F1000524
:100C10004FEA17274FEA066647EA0567A6F1DE4660
:100C2000B6F1805F4FEA15251FD9384624F0010C34
:100C300005EBC471BCF1FE6F01EB0C1102D8F0BCE6
:100C4000BDE8008124425CBF01F5801E9EEAC47F9E
:100C500002D4F0BCBDE80081244238D4F0BCA1F13C
:100C6000C041BDE8004100F0C1B94FEAD22242EADA
:100C700043524FEAD323A7FB02864FEAD02040EA33
:100C8000415007FB03661EEA0E0F4FEAD12105FB18
:100C9000026658BFA6EB0056B6EB00564FEA520E5E
:100CA0004EEAC37E18EB0E0E56EB530EBDD518EB75
:100CB00002085E417F1C55F10005B6E74FF4801530
:100CC0004FF000074FF000064FF00008ADE7F0BC12
:100CD0004FF0000001F1C04101F00041BDE800818A
:100CE00011EA0C1F0CEA131500D00CE013EA0C1FDC
:100CF00000F025804FF00000F0BC81EA030101F014
:100D00000041BDE80081F0BCBDE8004181EA03017B
:100D100000F06CB9F0BCBDE8004170B500F018F906
:100D2000097EFC3E00F007B881EA03014FF00000A5
:100D300001F00041704781EA030100F057B9F0BCAF
:100D4000BDE800414FF0000021497047FFFDFBF96D
:100D5000F7F5F4F2F0EEEDEBE9E8E6E4E3E1E0DEEE
:100D6000DDDBDAD8D7D5D4D3D1D0CFCDCCCBCAC860
:100D7000C7C6C5C4C2C1C0BFBEBDBCBBBAB9B8B787
:100D8000B6B5B4B3B2B1B0AFAEADACABAAA9A8A87A
:100D9000A7A6A5A4A3A3A2A1A09F9F9E9D9C9C9B48
:100DA0009A999998979796959594939392919190F3
:100DB0008F8F8E8E8D8C8C8B8B8A89898888878784
:100DC0008685858484838382828181800000FF07F9
:100DD0000000F87FB0FA80F310FA03F10AD0C3F1F3
:100DE0001D0303F580634FEA41504FEA035202EBC3
:100DF000D12170474FF0000070470000DFF848C174
:100E000070B51CEA111E1EBF1CEA13159EEA0C0FDA
:100E100095EA0C0F00F06F8081EA030423EA4C137B
:100E20004EEAD47E21EA4C1141F4801143F4801340
:100E3000AE44A1FB024CA0FB0365AEF17F7E3619E8
:100E400055EB0C05A1FB034C4CF10003A0FB021C6D
:100E500016EB0C06654153F10003094218BF46F03A
:100E6000010613F4007F0BD14FEA03314FEA05303E
:100E7000340341EA155140EA16506FF003020AE0CC
:100E80004FEAC3214FEAC520F40241EA555140EA36
:100E900056506FF0020202EB2E4201EB025585EA3A
:100EA000CE710AD05FEA440C18BF24F0004450F120
:100EB000000041F1000120EAD47040F2FE7C62455E
:100EC00000D270BDA84214BF4FF080444FF04044A0
:100ED000002E08BF0024BEF1806FA8BFA1F1C04161
:100EE000BDE8704080F282804FF0000001F1C04107
:100EF00001F0004170479EEA0C0F0CEA131518BF71
:100F000095EA0C0F06D04FF0000081EA030E0EF0B8
:100F1000004170BD00F01CF88900013E00F007B8E8
:100F200000F009B84FEA430C5FEA5C5C08D081EA44
:100F3000030100F05BB84FEA410C5FEA5C5CF6D15C
:100F40004FF00000014970470000FF070000F87FE4
:100F50000EF1020E2EF0030E5EF8046B364205D43D
:100F6000012A43EB030515F5001F12D8012841EBB8
:100F7000010C1CF5001F0CD80ED14FEAD17C15F5E1
:100F8000001F0CEB4C0C0CF1020C08BF4CEBD37C9B
:100F900004E04FF0080C01E04FEAD37C0CEB4C0569
:100FA00026FA05F606F00706B6F1040C06D20EEB9B
:100FB000860CBDE870404CF0010C6047DFE80CF097
:100FC000090B02024FF000414FF00000A1F5002193
:100FD00070BD19461046012851EB010418BFD4F525
:100FE000001484BF002001F0004170BD0808A0F586
:100FF00000114FEA31017047C10DD1F19E0206DBAD
:101000004FEA002343F0004323FA02F07047004206
:1010100007D54FEA4001B1F1FE4F02D24FF0000078
:10102000704710B500F007F84992248000207047FF
:101030006FEA200070470EF1020E2EF0030E5EF8EC
:10104000044B244204D44FEA4102B2F17F4F11D83D
:101050004FEA4003B3F17F4F0CD80ED14FEAD07C5A
:10106000B2F17F4F0CEB4C0C0CF1020C08BF4CEBB7
:10107000D17C04E04FF0080C01E04FEAD17C0CEB8E
:101080004C0324FA03F404F00704B4F1040C06D270
:101090000EEB840CBDE810404CF0010C6047DFE81B
:1010A0000CF0070802024FF00040A0F5800010BDD0
:1010B0000846420018BFD2F1807288BF00F000409D
:1010C00010BDFF2141EAD050C0057047C2154FEA5C
:1010D000002318BF43F000430ED4D2F1BE0215D353
:1010E00023FA02F1B2F1200C2EBF23FA0CF0C2F168
:1010F000200C03FA0CF070474FEA400CBCF1FE4F95
:1011000004D24FF000004FF00001704710B5FFF718
:1011100092FF00BF9224498000204FF000017047E9
:101120006FEAE07001467047481100080000002097
:101130009C00000028010008E41100089C00002029
:1011400064060000440100084A01EE02B80177017C
:10115000EE0177010B02EE024B0277019302770159
:101160004B02EE02EE01770188017701B801DC0540
:101170004A01EE02B8017701EE0177010B02EE029F
:101180004B027701930277014B02EE02EE017701E9
:10119000880177011003DC059302EE02BA027701A1
:1011A000100377017003EE0210037701BA02770192
:1011B0009302EE024B02EE029302EE020B02770163
:1011C000EE017701B801EE02B8017701EE01770177
:1011D0000B02EE020B02EE02EE01EE028801EE02BD
:0411E000B801B80B8F
:04000005080000ED02
:00000001FF
