:020000040800F2
:10000000080400200101000851030008490300080A
:100010004D03000849010008050800080000000021
:100020000000000000000000000000008906000839
:100030004D01000800000000530300087507000888
:100040001B0100081B0100081B0100081B01000820
:100050001B0100081B0100081B0100081B01000810
:100060001B0100081B0100081B0100081B01000800
:100070001B0100081B0100081B0100081B010008F0
:100080001B0100081B0100081B0100081B010008E0
:100090001B0100081B0100081B0100081B010008D0
:1000A0001B0100081B0100081B0100081B010008C0
:1000B0001B0100081B0100081B0100081B010008B0
:1000C0001B0100081B0100081B0100081B010008A0
:1000D0001B0100081B0100081B0100081B01000890
:1000E0001B0100081B0100081B010008DFF80CD0F1
:1000F00000F018F8004800476D08000808040020C8
:100100000648804706480047FEE7FEE7FEE7FEE7B1
:10011000FEE7FEE7FEE7FEE7FEE7FEE779070008F9
:10012000ED000008064C074D06E0E06840F00103D2
:1001300094E8070098471034AC42F6D3FFF7DAFF93
:10014000BC0A0008DC0A000800BFFEE77047000098
:100150000549096821F01001034A11601146096838
:10016000014311607047000000200240014600205A
:10017000034A106800F03800084310607047000020
:10018000002002402DE9F041024600250026002013
:1001900000230024002791F803C00CF00F0591F80C
:1001A00003C00CF0100CBCF1000F03D091F802C09A
:1001B0004CEA050591F800C0BCF1000F31D014687D
:1001C00000202BE04FF0010C0CFA00F3B1F800C056
:1001D0000CEA03069E4220D183004FF00F0C0CFA6C
:1001E00003F7BC4305FA03FC4CEA040491F803C08E
:1001F000BCF1280F06D14FF0010C0CFA00FCC2F83C
:1002000014C00AE091F803C0BCF1480F05D14FF0CB
:10021000010C0CFA00FCC2F810C0401C0828D1D315
:100220001460B1F800C0BCF1FF0F34DD5468002049
:100230002EE000F1080C4FF0010808FA0CF3B1F8B9
:1002400000C00CEA03069E4221D183004FF00F0C40
:100250000CFA03F7BC4305FA03FC4CEA040491F8DA
:1002600003C0BCF1280F05D100F1080C08FA0CF806
:10027000C2F8148091F803C0BCF1480F07D100F117
:10028000080C4FF0010808FA0CF8C2F81080401C66
:100290000828CED35460BDE8F0810000F0B50A46CE
:1002A000002300240021002500F00046B6F1004F95
:1002B00002D11D4EF16901E01B4E7168C0F3034588
:1002C00083B200F44016B6F5401F08D121F07061EA
:1002D000154E766826F07066134F7E6012E000F4CB
:1002E0008016B6F5801F06D1032606FA05F4A14351
:1002F00041F0706106E0460D360103FA06F6B1439F
:1003000041F0706122B1460D360103FA06F6314321
:1003100000F00046B6F1004F02D1034EF16101E05A
:10032000014E7160F0BD0000000001400246002057
:1003300093680B400BB1012000E0002070470AB128
:10034000016100E04161704700BFFEE700BFFEE7CA
:100350007047704729B1064A92690243044B9A617B
:1003600004E0034A92698243014B9A61704700009E
:100370000010024010B500F02FF84FF4803000F06C
:1003800083F800F0DFF80446012C24D14FF4E0118B
:10039000000400F0BDF8002000F06AF8A00200F0B0
:1003A00099F8002000F0A2F80220FFF7DFFE1020ED
:1003B000FFF7CEFE012000F0A5F800BF392000F0C5
:1003C00031F80028FAD0022000F0B0F800BF00F0A9
:1003D00047F80828FBD110BD0F48006840F0010025
:1003E0000D490860084640680C4908400A494860C1
:1003F000084600680A49084007490860084600683E
:1004000020F4802008600846406820F4FE00486020
:100410004FF41F0088607047001002400000FFF892
:10042000FFFFF6FE10B501460022002300204A110E
:10043000012A02D1094C236806E0022A02D1074CA6
:10044000236A01E0054C636A01F01F020124944015
:100450001C400CB1012000E0002010BD0010024043
:100460000248406800F00C00704700000010024095
:1004700001460020034A506820F0F0000843506015
:1004800070470000001002401149096821F48031D2
:100490000F4A11601146096821F480211160B0F5FE
:1004A000803F03D0B0F5802F0ED106E008490968DF
:1004B00041F48031064A116007E00549096841F4BA
:1004C000A021034A116000E000BF00BF7047000098
:1004D0000010024001460020034A506820F4E0600A
:1004E00008435060704700000010024001460020A1
:1004F000034A506820F4605040EAC10050607047E1
:1005000000100240014908667047000000004242A6
:1005100002460020044B586820F47C1042EA010394
:100520001843014B586070470010024001460020FC
:10053000034A506820F003000843506070470000F1
:100540000010024038B5002000900024002500BFB4
:100550003120FFF767FF05460098401C0090009887
:10056000B0F5A06F01D0002DF2D03120FFF75AFF77
:1005700008B1012400E00024204638BD08B501215F
:100580000920FFF7E7FE01210948FFF787FE4FF436
:100590004670ADF8000003208DF8020010208DF8A1
:1005A000030069460348FFF7EDFD00F005F808BDBC
:1005B00000043000000C014010B5002208210A4858
:1005C000FFF7BDFE00224FF480710748FFF7B7FE2A
:1005D000002210210448FFF7B2FE00224FF4007100
:1005E0000148FFF7ACFE10BD000C01402DE9F843B7
:1005F000064614461D46DDF8209040F6EC720020B9
:10060000A4FB027305FB023204FB00233A4630468A
:10061000CDF8009000F002F8BDE8F8832DE9F0472E
:10062000804614461D46DDF8209000210E460F46F8
:1006300021E0B8F1010F0BD112480078401C11499C
:1006400008700846007807280DDD002008700AE0D1
:100650000C48007810B908200A4908700948007849
:10066000401E0849087049460648007800F05EF9C7
:10067000761C47F10007301B77EB0500D9D3BDE8A6
:10068000F087000000000020704710B500F002F86D
:1006900010BD00000CB500200190009033480068A8
:1006A00040F480303149086000BF3048006800F4F1
:1006B000003000900198401C0190009818B90198F2
:1006C000B0F5A06FF1D12948006800F4003010B1F6
:1006D0000120009001E0002000900098012843D103
:1006E0002348006840F0100021490860084600686F
:1006F00020F0030008600846006840F0020008602F
:100700001A484068194948600846406848600846E9
:10071000406840F4806048600846406820F47C10DF
:1007200048600846406840F4E810486008460068A1
:1007300040F08070086000BF0C48006800F0007056
:100740000028F9D00948406820F0030007494860B4
:100750000846406840F00200486000BF0348406817
:1007600000F00C000828F9D10CBD00000010024078
:10077000002002407047000010B51348006840F0A8
:1007800001001149086008464068104908400E49B8
:100790004860084600680E4908400B490860084652
:1007A000006820F4802008600846406820F4FE00BD
:1007B00048604FF41F008860FFF767FF4FF000604C
:1007C0000449086010BD0000001002400000FFF85E
:1007D000FFFFF6FE08ED00E008B501210420FFF759
:1007E000B9FD0F20ADF8000048208DF8030003206C
:1007F0008DF8020069460248FFF7C4FC08BD0000FE
:100800000008014000BFFEE702E008C8121F08C14F
:10081000002AFAD170477047002001E001C1121F81
:10082000002AFBD1704700B5034603E04FF47A700D
:1008300000F005F8181EA3F10103F7D100BD00EB8D
:10084000C001C9004FF0E0225161002191610521F2
:10085000116100BF4FF0E021096901F480310029E6
:10086000F8D004214FF0E0221161704708B5FFF77E
:1008700081FDFFF783FEFFF7AFFF53E001212A4818
:10088000FFF754FD80B91420FFF7CDFF00BF012111
:100890002548FFF74BFD0028F9D003200122002353
:1008A00000901846FFF7A2FE02211F48FFF73EFD09
:1008B00080B91420FFF7B7FF00BF02211A48FFF7E5
:1008C00035FD0028F9D003200122002300901046B6
:1008D000FFF78CFE04211448FFF728FD70B914209F
:1008E000FFF7A1FF04211048FFF720FD30B90320D6
:1008F0000122002300901846FFF790FE08210A48C5
:10090000FFF714FD70B91420FFF78DFF082106488A
:10091000FFF70CFD30B903200122002300901046A0
:10092000FFF77CFEAAE700000008014070B504460E
:100930000D46082C76D2DFE804F0041B32495F76BE
:100940008BA100224FF480715B48FFF7F8FC002276
:100950004FF400715848FFF7F2FC0022102156486E
:10096000FFF7EDFC012208215348FFF7E8FC9CE06B
:1009700000224FF480715048FFF7E1FC00224FF451
:1009800000714D48FFF7DBFC012208214A48FFF7C0
:10099000D6FC012210214848FFF7D1FC85E0002257
:1009A0004FF480714448FFF7CAFC00224FF40071F5
:1009B0004148FFF7C4FC002208213F48FFF7BFFC75
:1009C000012210213C48FFF7BAFC6EE0002208210A
:1009D0003948FFF7B4FC00224FF400713648FFF7A6
:1009E000AEFC012211023448FFF7A9FC01221021BC
:1009F0003148FFF7A4FC58E0002208212E48FFF7F9
:100A00009EFC002210212C48FFF799FC00224FF495
:100A100000712948FFF793FC012211022648FFF7D5
:100A20008EFC42E040E0002208212348FFF787FCCB
:100A3000002210212048FFF782FC012211021E48EB
:100A4000FFF77DFC012251021B48FFF778FC2CE0E8
:100A500000224FF480711848FFF771FC002210212A
:100A60001548FFF76CFC002208211348FFF767FCCC
:100A7000012251021048FFF762FC16E000224FF4F9
:100A800080710D48FFF75BFC002210210A48FFF738
:100A900056FC012208210848FFF751FC01225102AF
:100AA0000548FFF74CFC00E000BF00BF2846FFF7F9
:100AB000BAFEFFF781FD70BD000C0140DC0A0008A2
:100AC000000000200400000008080008E00A0008F8
:100AD00004000020040400001808000800000000C2
:04000005080000ED02
:00000001FF
