:020000040800F2
:10000000600600206D0100088903000881030008D4
:1000100085030008270200080D0900080000000001
:10002000000000000000000000000000DD050008E6
:100030002B020008000000008B030008F1060008F6
:100040008701000887010008870100088701000870
:100050008701000887010008870100088701000860
:100060008701000887010008870100088701000850
:100070008701000887010008870100088701000840
:100080008701000887010008870100088701000830
:100090008701000887010008870100088701000820
:1000A0008701000887010008870100088701000810
:1000B0008701000887010008870100088701000800
:1000C00087010008870100088701000887010008F0
:1000D00087010008870100088701000887010008E0
:1000E00087010008870100088701000800F002F876
:1000F00000F02CF80AA090E8000C82448344AAF196
:100100000107DA4501D100F021F8AFF2090EBAE893
:100110000F0013F0010F18BFFB1A43F0010318473B
:10012000D4080000E4080000002300240025002675
:10013000103A28BF78C1FBD8520728BF30C148BF4A
:100140000B6070471FB51FBD10B510BD00F031F832
:100150001146FFF7F7FF00F0FFFB00F04FF803B484
:10016000FFF7F2FF03BC00F057F800000948804792
:1001700009480047FEE7FEE7FEE7FEE7FEE7FEE789
:10018000FEE7FEE7FEE7FEE704480549054A064BA1
:1001900070470000F5060008ED0000086000002030
:1001A0006006002060020020600200207047704757
:1001B0007047754600F02CF8AE4605006946534678
:1001C00020F00700854618B020B5FFF7DDFFBDE839
:1001D00020404FF000064FF000074FF000084FF0AE
:1001E000000B21F00701AC46ACE8C009ACE8C0093F
:1001F000ACE8C009ACE8C0098D46704710B50446AC
:10020000AFF300802046BDE81040FFF7A8BF000014
:10021000004870470000002001491820ABBEFEE7EF
:1002200026000200704700BFFEE7704705490968D5
:1002300021F01001034A1160114609680143116061
:10024000704700000020024001460020034A106869
:1002500000F03800084310607047000000200240A2
:100260002DE9F0410246002500260020002300244D
:10027000002791F803C00CF00F0591F803C00CF0B3
:10028000100CBCF1000F03D091F802C04CEA050538
:1002900091F800C0BCF1000F31D0146800202BE0B1
:1002A0004FF0010C0CFA00F3B1F800C00CEA0306A1
:1002B0009E4220D183004FF00F0C0CFA03F7BC4391
:1002C00005FA03FC4CEA040491F803C0BCF1280FC2
:1002D00006D14FF0010C0CFA00FCC2F814C00AE081
:1002E00091F803C0BCF1480F05D14FF0010C0CFA96
:1002F00000FCC2F810C0401C0828D1D31460B1F82B
:1003000000C0BCF1FF0F34DD546800202EE000F186
:10031000080C4FF0010808FA0CF3B1F800C00CEA21
:1003200003069E4221D183004FF00F0C0CFA03F715
:10033000BC4305FA03FC4CEA040491F803C0BCF189
:10034000280F05D100F1080C08FA0CF8C2F8148047
:1003500091F803C0BCF1480F07D100F1080C4FF031
:10036000010808FA0CF8C2F81080401C0828CED307
:100370005460BDE8F0810AB1016100E0416170475D
:1003800000BFFEE700BFFEE77047704729B1064A8D
:1003900092690243044B9A6104E0034A92698243E2
:1003A000014B9A61704700000010024010B500F048
:1003B0002FF84FF4803000F083F800F0DFF80446A7
:1003C000012C24D14FF4E011000400F0BDF800200E
:1003D00000F06AF8A00200F099F8002000F0A2F8FE
:1003E0000220FFF731FF1020FFF720FF012000F06F
:1003F000A5F800BF392000F031F80028FAD002201B
:1004000000F0B0F800BF00F047F80828FBD110BD9D
:100410000F48006840F001000D4908600846406838
:100420000C4908400A494860084600680A490840E3
:10043000074908600846006820F4802008600846E4
:10044000406820F4FE0048604FF41F008860704749
:10045000001002400000FFF8FFFFF6FE10B5014655
:100460000022002300204A11012A02D1094C2368EE
:1004700006E0022A02D1074C236A01E0054C636AB8
:1004800001F01F02012494401C400CB1012000E047
:10049000002010BD001002400248406800F00C002F
:1004A000704700000010024001460020034A5068D7
:1004B00020F0F00008435060704700000010024038
:1004C0001149096821F480310F4A11601146096809
:1004D00021F480211160B0F5803F03D0B0F5802F6A
:1004E0000ED106E00849096841F48031064A1160DE
:1004F00007E00549096841F4A021034A116000E0C2
:1005000000BF00BF704700000010024001460020FD
:10051000034A506820F4E0600843506070470000D0
:100520000010024001460020034A506820F4605049
:1005300040EAC1005060704700100240014908665F
:10054000704700000000424202460020044B5868F9
:1005500020F47C1042EA01031843014B58607047B5
:100560000010024001460020034A506820F00300BA
:1005700008435060704700000010024038B500206A
:1005800000900024002500BF3120FFF767FF0546DB
:100590000098401C00900098B0F5A06F01D0002D8D
:1005A000F2D03120FFF75AFF08B1012400E0002407
:1005B000204638BD10B500224FF480510148FFF7A6
:1005C000DAFE10BD0008014010B500224FF40061B2
:1005D0000148FFF7D0FE10BD00080140704710B57C
:1005E00000F002F810BD00000CB500200190009052
:1005F0003348006840F480303149086000BF30481B
:10060000006800F4003000900198401C01900098B0
:1006100018B90198B0F5A06FF1D12948006800F42D
:10062000003010B10120009001E0002000900098FF
:10063000012843D12348006840F010002149086098
:100640000846006820F0030008600846006840F093
:10065000020008601A484068194948600846406826
:1006600048600846406840F480604860084640683A
:1006700020F47C1048600846406840F4E810486068
:100680000846006840F08070086000BF0C480068B1
:1006900000F000700028F9D00948406820F00300FD
:1006A000074948600846406840F00200486000BFC3
:1006B0000348406800F00C000828F9D10CBD000088
:1006C000001002400020024010B501221103024830
:1006D000FFF751FE10BD00000008014010B50122D7
:1006E000D1020248FFF747FE10BD0000000801409C
:1006F0007047000010B51348006840F00100114930
:10070000086008464068104908400E49486008469D
:1007100000680E4908400B4908600846006820F44C
:10072000802008600846406820F4FE0048604FF4CE
:100730001F008860FFF753FF4FF000600449086016
:1007400010BD0000001002400000FFF8FFFFF6FEA1
:1007500008ED00E02DE9F04180460C4616460025E4
:1007600001E0641C6D1C20780028FAD1641B00F0A5
:1007700092F8442000F0A7F800F041F80A2000F0B9
:10078000D3F800F088F8404600F09DF8002705E017
:10079000207800F098F8641C781CC7B2AF42F7D3F9
:1007A00000F02DF80A2000F0BFF8304600F017F8EE
:1007B000BDE8F0811FB500200090019002900390E9
:1007C00000226946C020FFF7C5FF1FBD10B500F02D
:1007D00062F8802000F077F800F011F810BD10B535
:1007E0000446072C00DD072404F18800C4B200F0A1
:1007F00052F8204600F067F800F001F810BD10B57F
:10080000FFF7D8FE0A2000F08FF8FFF767FF0A20F5
:1008100000F08AF8FFF758FF10BD70B506460C4689
:10082000154600F038F8442000F04DF8FFF7E7FFD8
:100830000A2000F079F800F02EF8304600F043F876
:10084000204600F040F8FFF7DAFF0A2000F06CF8CD
:100850002846FFF7C4FF70BD08B501210420FFF74B
:1008600095FD48208DF8030003208DF80200C0029A
:10087000ADF8000069460248FFF7F2FC08BD000031
:100880000008014070B504460D462A462146C8209E
:10089000FFF7C3FF70BD10B50A2000F045F8FFF761
:1008A00013FFFFF71BFF0A2000F03EF8FFF70CFFD5
:1008B000012000F039F8FFF77DFE012000F034F848
:1008C000FFF782FE10BD70B50446002519E0FFF762
:1008D0007BFE04F0010010B1FFF7F6FE01E0FFF728
:1008E00069FE012000F020F8FFF7F8FE0A2000F072
:1008F0001BF8FFF769FE012000F016F86410681C71
:10090000C5B2082DE3DBFFF755FE70BD00BFFEE763
:1009100000B5034603E04FF47A7000F005F8181EA6
:10092000A3F10103F7D100BD00EBC001C9004FF0F6
:10093000E0225161002191610521116100BF4FF05A
:10094000E021096901F480310029F8D004214FF039
:10095000E0221161704700000EB5FFF727FDFFF799
:100960007BFFFFF727FFFFF731FF1BA2D2E9001043
:100970009268CDE90102009100242CE0FFF71AFFF4
:100980002546C02610E01DF80520164B995C06F19F
:10099000C002D0B20522FFF740FF681CC5B20A2D85
:1009A00000DB0025701CC6B2C72EECDD00260AE075
:1009B0000121B140C8B20521FFF764FFC820FFF74D
:1009C000A7FF701CC6B2082EF2DB601CC4B20A2C52
:1009D00000DB002400BFD1E7000102030405060785
:1009E00008090000E80900083F065B4F666D7D07B7
:1009F0007F6F0000040A000800000020600600006D
:040A000028010008C1
:04000005080000ED02
:00000001FF
