:020000040800F2
:10000000600600206D010008830300087B030008E0
:100010007F03000827020008010700080000000015
:10002000000000000000000000000000B105000812
:100030002B02000800000000850300089D06000850
:100040008701000887010008870100088701000870
:100050008701000887010008870100088701000860
:100060008701000887010008870100088701000850
:100070008701000887010008870100088701000840
:100080008701000887010008870100088701000830
:100090008701000887010008870100088701000820
:1000A0008701000887010008870100088701000810
:1000B0008701000887010008870100088701000800
:1000C00087010008870100088701000887010008F0
:1000D00087010008870100088701000887010008E0
:1000E00087010008870100088701000800F002F876
:1000F00000F02CF80AA090E8000C82448344AAF196
:100100000107DA4501D100F021F8AFF2090EBAE893
:100110000F0013F0010F18BFFB1A43F0010318473B
:10012000C4070000D4070000002300240025002697
:10013000103A28BF78C1FBD8520728BF30C148BF4A
:100140000B6070471FB51FBD10B510BD00F031F832
:100150001146FFF7F7FF00F0BCFB00F04FF803B4C7
:10016000FFF7F2FF03BC00F057F800000948804792
:1001700009480047FEE7FEE7FEE7FEE7FEE7FEE789
:10018000FEE7FEE7FEE7FEE704480549054A064BA1
:1001900070470000A1060008ED0000086000002084
:1001A0006006002060020020600200207047704757
:1001B0007047754600F02CF8AE4605006946534678
:1001C00020F00700854618B020B5FFF7DDFFBDE839
:1001D00020404FF000064FF000074FF000084FF0AE
:1001E000000B21F00701AC46ACE8C009ACE8C0093F
:1001F000ACE8C009ACE8C0098D46704710B50446AC
:10020000AFF300802046BDE81040FFF7A8BF000014
:10021000004870470000002001491820ABBEFEE7EF
:1002200026000200704700BFFEE7704705490968D5
:1002300021F01001034A1160114609680143116061
:10024000704700000020024001460020034A106869
:1002500000F03800084310607047000000200240A2
:100260002DE9F0410246002500260020002300244D
:10027000002791F803C00CF00F0591F803C00CF0B3
:10028000100CBCF1000F03D091F802C04CEA050538
:1002900091F800C0BCF1000F31D0146800202BE0B1
:1002A0004FF0010C0CFA00F3B1F800C00CEA0306A1
:1002B0009E4220D183004FF00F0C0CFA03F7BC4391
:1002C00005FA03FC4CEA040491F803C0BCF1280FC2
:1002D00006D14FF0010C0CFA00FCC2F814C00AE081
:1002E00091F803C0BCF1480F05D14FF0010C0CFA96
:1002F00000FCC2F810C0401C0828D1D31460B1F82B
:1003000000C0BCF1FF0F34DD546800202EE000F186
:10031000080C4FF0010808FA0CF3B1F800C00CEA21
:1003200003069E4221D183004FF00F0C0CFA03F715
:10033000BC4305FA03FC4CEA040491F803C0BCF189
:10034000280F05D100F1080C08FA0CF8C2F8148047
:1003500091F803C0BCF1480F07D100F1080C4FF031
:10036000010808FA0CF8C2F81080401C0828CED307
:100370005460BDE8F081C160704700BFFEE700BF78
:10038000FEE770477047000029B1064A92690243B0
:10039000044B9A6104E0034A92698243014B9A61DB
:1003A000704700000010024010B500F02FF84FF425
:1003B000803000F083F800F0DFF80446012C24D1EF
:1003C0004FF4E011000400F0BDF8002000F06AF8DE
:1003D000A00200F099F8002000F0A2F80220FFF738
:1003E00033FF1020FFF722FF012000F0A5F800BF27
:1003F000392000F031F80028FAD0022000F0B0F8DF
:1004000000BF00F047F80828FBD110BD0F48006876
:1004100040F001000D490860084640680C4908405A
:100420000A494860084600680A49084007490860C8
:100430000846006820F4802008600846406820F4E0
:10044000FE0048604FF41F008860704700100240B3
:100450000000FFF8FFFFF6FE10B501460022002362
:1004600000204A11012A02D1094C236806E0022A21
:1004700002D1074C236A01E0054C636A01F01F02B8
:10048000012494401C400CB1012000E0002010BD6C
:10049000001002400248406800F00C007047000065
:1004A0000010024001460020034A506820F0F0008E
:1004B000084350607047000000100240114909686D
:1004C00021F480310F4A11601146096821F480211E
:1004D0001160B0F5803F03D0B0F5802F0ED106E05B
:1004E0000849096841F48031064A116007E005496E
:1004F000096841F4A021034A116000E000BF00BF79
:10050000704700000010024001460020034A506876
:1005100020F4E06008435060704700000010024083
:1005200001460020034A506820F4605040EAC100B0
:100530005060704700100240014908667047000093
:100540000000424202460020044B586820F47C1010
:1005500042EA01031843014B586070470010024003
:1005600001460020034A506820F003000843506011
:10057000704700000010024038B5002000900024B1
:10058000002500BF3120FFF767FF05460098401C9B
:1005900000900098B0F5A06F01D0002DF2D031206E
:1005A000FFF75AFF08B1012400E00024204638BDBF
:1005B000704710B500F002F810BD00000CB5002027
:1005C000019000903348006840F480303149086061
:1005D00000BF3048006800F4003000900198401CD3
:1005E0000190009818B90198B0F5A06FF1D1294891
:1005F000006800F4003010B10120009001E00020FC
:1006000000900098012843D12348006840F0100072
:10061000214908600846006820F003000860084689
:10062000006840F0020008601A48406819494860B4
:100630000846406848600846406840F4806048606A
:100640000846406820F47C1048600846406840F442
:10065000E81048600846006840F08070086000BFFD
:100660000C48006800F000700028F9D00948406884
:1006700020F00300074948600846406840F0020047
:10068000486000BF0348406800F00C000828F9D11A
:100690000CBD000000100240002002407047000026
:1006A00010B51348006840F0010011490860084681
:1006B0004068104908400E494860084600680E49E5
:1006C00008400B4908600846006820F48020086054
:1006D0000846406820F4FE0048604FF41F00886020
:1006E000FFF767FF4FF000600449086010BD00008D
:1006F000001002400000FFF8FFFFF6FE08ED00E0EA
:1007000000BFFEE708B501210420FFF73DFE4FF6CC
:10071000FF70ADF8000003208DF8020010208DF866
:10072000030069460448FFF79BFD4FF6FF7102483E
:10073000FFF721FE08BD0000000801401CB50024A1
:100740000BE00120A040C04381B24D48FFF713FEEB
:10075000642000F09BF8601C44B2082CF1DB0124FB
:100760000BE080202041C04381B24548FFF703FEE3
:10077000642000F08BF8601C44B2092CF1DB41A02E
:1007800000680190002409E001A8015D3C48FFF7E2
:10079000F2FD642000F07AF8601C44B2042CF3DB14
:1007A000032409E001A8015D3548FFF7E4FD64205A
:1007B00000F06CF8601E44B2002CF3DA00240BE069
:1007C00001A8005DC04381B22D48FFF7D4FD64202D
:1007D00000F05CF8601C44B2042CF1DB03240BE055
:1007E00001A8005DC04381B22548FFF7C4FD642025
:1007F00000F04CF8601E44B2002CF1DA22A0006830
:10080000009000240AE01DF9040081B21C48FFF7A3
:10081000B2FD642000F03AF8601C44B2042CF2DB14
:1008200003240AE01DF9040081B21548FFF7A3FD77
:10083000642000F02BF8601E44B2002CF2DA002491
:100840000BE01DF90400C04381B20D48FFF793FD92
:10085000642000F01BF8601C44B2042CF1DB03247C
:100860000BE01DF90400C04381B20548FFF783FD8A
:10087000642000F00BF8601E44B2002CF1DA1CBDBD
:100880000008014081C3E7FF8142241800B50346F8
:1008900003E04FF47A7000F005F8181EA3F101038D
:1008A000F7D100BD00EBC001C9004FF0E02251615B
:1008B000002191610521116100BF4FF0E02109691C
:1008C00001F480310029F8D004214FF0E0221161B9
:1008D0007047FFF769FDFFF715FF01E0FFF72EFFF7
:1008E000FCE70000F408000800000020600600009B
:0408F00028010008D3
:04000005080000ED02
:00000001FF
