:020000040800F2
:10000000600600206D01000839050008DB040008C7
:100010003505000827020008B508000800000000A8
:10002000000000000000000000000000650700085C
:100030002B020008000000003B05000851080008E2
:100040008701000887010008870100088701000870
:100050008701000887010008870100088701000860
:100060008701000887010008870100088701000850
:100070008701000887010008870100088701000840
:100080008701000887010008870100088701000830
:100090008701000887010008870100088701000820
:1000A0008701000887010008870100088701000810
:1000B0008701000887010008870100088701000800
:1000C00087010008870100088701000887010008F0
:1000D00087010008870100088701000887010008E0
:1000E00087010008870100088701000800F002F876
:1000F00000F02CF80AA090E8000C82448344AAF196
:100100000107DA4501D100F021F8AFF2090EBAE893
:100110000F0013F0010F18BFFB1A43F0010318473B
:10012000F00800000009000000230024002500263C
:10013000103A28BF78C1FBD8520728BF30C148BF4A
:100140000B6070471FB51FBD10B510BD00F031F832
:100150001146FFF7F7FF00F0D3FB00F04FF803B4B0
:10016000FFF7F2FF03BC00F057F800000948804792
:1001700009480047FEE7FEE7FEE7FEE7FEE7FEE789
:10018000FEE7FEE7FEE7FEE704480549054A064BA1
:100190007047000055080008ED00000860000020CE
:1001A0006006002060020020600200207047704757
:1001B0007047754600F02CF8AE4605006946534678
:1001C00020F00700854618B020B5FFF7DDFFBDE839
:1001D00020404FF000064FF000074FF000084FF0AE
:1001E000000B21F00701AC46ACE8C009ACE8C0093F
:1001F000ACE8C009ACE8C0098D46704710B50446AC
:10020000AFF300802046BDE81040FFF7A8BF000014
:10021000004870470000002001491820ABBEFEE7EF
:1002200026000200704700BFFEE770470149C86022
:10023000704700000020024030B5044604254FF40A
:10024000302000F089F80546042D17D10C480069CC
:1002500040F002000A49086108464461006940F024
:10026000400008614FF4302000F076F8054604485D
:10027000006941F6FD71084001490861284630BD1A
:100280000020024004200B49C96801F0010109B1B6
:1002900001200EE00749C96801F0040109B10220FC
:1002A00007E00449C96801F0100109B1032000E02A
:1002B00004207047002002400348006940F080009D
:1002C00001490861704700000020024005490968A3
:1002D00021F01001034A11601146096801431160C1
:1002E000704700000020024070B504460D46042609
:1002F000F00200F031F80646042E11D109480069D9
:1003000040F00100074908612580F00200F024F860
:1003100006460448006941F6FE710840014908613B
:10032000304670BD0020024001460020034A10689C
:1003300000F03800084310607047000000200240C1
:1003400002480349486003484860704723016745F5
:1003500000200240AB89EFCD00B502460423FFF731
:1003600091FF034603E0FFF78DFF0346521E012B6A
:1003700001D1002AF7D102B90523184600BD014674
:100380000888704770B504460D46FFF7D9FF342042
:10039000FFF74CFF2046FFF74FFF29462046FFF7A7
:1003A000A3FFFFF789FF70BD2DE9F041024600254C
:1003B0000026002000230024002791F803C00CF041
:1003C0000F0591F803C00CF0100CBCF1000F03D026
:1003D00091F802C04CEA050591F800C0BCF1000F8D
:1003E00031D0146800202BE04FF0010C0CFA00F320
:1003F000B1F800C00CEA03069E4220D183004FF002
:100400000F0C0CFA03F7BC4305FA03FC4CEA040496
:1004100091F803C0BCF1280F06D14FF0010C0CFA83
:1004200000FCC2F814C00AE091F803C0BCF1480F08
:1004300005D14FF0010C0CFA00FCC2F810C0401CB2
:100440000828D1D31460B1F800C0BCF1FF0F34DD2F
:10045000546800202EE000F1080C4FF0010808FA63
:100460000CF3B1F800C00CEA03069E4221D18300D0
:100470004FF00F0C0CFA03F7BC4305FA03FC4CEAEF
:10048000040491F803C0BCF1280F05D100F1080C59
:1004900008FA0CF8C2F8148091F803C0BCF1480FB8
:1004A00007D100F1080C4FF0010808FA0CF8C2F867
:1004B0001080401C0828CED35460BDE8F08102466D
:1004C000002093680B400BB1012000E00020704732
:1004D0000AB1016100E04161704700BFFEE7000022
:1004E00008B50121042000F029F80320ADF8000030
:1004F00048208DF8030003208DF802006946024869
:10050000FFF752FF08BD00000008014008B50121B7
:10051000082000F013F80320ADF800008DF8020069
:1005200010208DF8030069460148FFF73DFF08BD24
:10053000000C014000BFFEE77047704729B1064A32
:1005400092690243044B9A6104E0034A9269824330
:10055000014B9A61704700000010024010B500F096
:100560002FF84FF4803000F083F800F0DFF80446F5
:10057000012C24D14FF4E011000400F0BDF800205C
:1005800000F06AF8A00200F099F8002000F0A2F84C
:100590000220FFF7C9FE1020FFF798FE012000F0AF
:1005A000A5F800BF392000F031F80028FAD0022069
:1005B00000F0B0F800BF00F047F80828FBD110BDEC
:1005C0000F48006840F001000D4908600846406887
:1005D0000C4908400A494860084600680A49084032
:1005E000074908600846006820F480200860084633
:1005F000406820F4FE0048604FF41F008860704798
:10060000001002400000FFF8FFFFF6FE10B50146A3
:100610000022002300204A11012A02D1094C23683C
:1006200006E0022A02D1074C236A01E0054C636A06
:1006300001F01F02012494401C400CB1012000E095
:10064000002010BD001002400248406800F00C007D
:10065000704700000010024001460020034A506825
:1006600020F0F00008435060704700000010024086
:100670001149096821F480310F4A11601146096857
:1006800021F480211160B0F5803F03D0B0F5802FB8
:100690000ED106E00849096841F48031064A11602C
:1006A00007E00549096841F4A021034A116000E010
:1006B00000BF00BF7047000000100240014600204C
:1006C000034A506820F4E06008435060704700001F
:1006D0000010024001460020034A506820F4605098
:1006E00040EAC100506070470010024001490866AE
:1006F000704700000000424202460020044B586848
:1007000020F47C1042EA01031843014B5860704703
:100710000010024001460020034A506820F0030008
:1007200008435060704700000010024038B50020B8
:1007300000900024002500BF3120FFF767FF054629
:100740000098401C00900098B0F5A06F01D0002DDB
:10075000F2D03120FFF75AFF08B1012400E0002455
:10076000204638BD704710B500F002F810BD0000FB
:100770000CB50020019000903348006840F48030B0
:100780003149086000BF3048006800F40030009034
:100790000198401C0190009818B90198B0F5A06F1D
:1007A000F1D12948006800F4003010B10120009018
:1007B00001E0002000900098012843D12348006800
:1007C00040F01000214908600846006820F003004E
:1007D00008600846006840F0020008601A48406857
:1007E000194948600846406848600846406840F437
:1007F000806048600846406820F47C1048600846E5
:10080000406840F4E81048600846006840F0807096
:10081000086000BF0C48006800F000700028F9D0A4
:100820000948406820F003000749486008464068CE
:1008300040F00200486000BF0348406800F00C0030
:100840000828F9D10CBD0000001002400020024031
:100850007047000010B51348006840F001001149CE
:10086000086008464068104908400E49486008463C
:1008700000680E4908400B4908600846006820F4EB
:10088000802008600846406820F4FE0048604FF46D
:100890001F008860FFF767FF4FF0006004490860A1
:1008A00010BD0000001002400000FFF8FFFFF6FE40
:1008B00008ED00E000BFFEE700B5034603E04FF49B
:1008C0007A7000F005F8181EA3F10103F7D100BDFE
:1008D00000EBC001C9004FF0E0225161002191619D
:1008E0000521116100BF4FF0E021096901F4803159
:1008F0000029F8D004214FF0E02211617047000078
:10090000FFF72CFEFFF702FEFFF7EAFD0A250020A5
:1009100000F05AF8002000F069F81448FFF72FFDA6
:10092000C4B2204600F026F81FE001211048FFF76E
:10093000C6FDD0B92846FFF7BFFF01210C48FFF7DD
:10094000BEFD90B9601CC4B2032C00DD002420461B
:1009500000F010F821460548FFF714FD00BF012103
:100960000348FFF7ACFD0028F9D0DEE700F00108EE
:100970000008014010B5044634B1012C0BD0022C04
:1009800010D0032C1CD114E0002000F01DF8002032
:1009900000F02CF815E0012000F016F8002000F01F
:1009A00025F80EE0012000F00FF8012000F01EF8FD
:1009B00007E0002000F008F8012000F017F800E040
:1009C00000BF00BF10BD000010B50446012C05D1CA
:1009D000012211460448FFF77BFD04E000220121BB
:1009E0000148FFF775FD10BD000C014010B504462D
:1009F000012C05D1012202210448FFF769FD04E022
:100A0000002202210148FFF763FD10BD000C0140E8
:100A1000200A0008000000206006000028010008ED
:04000005080000ED02
:00000001FF
