:020000040800F2
:100000007006002089010008470500080505000862
:100010004305000843020008450E000800000000E8
:10002000000000000000000000000000410A00087D
:10003000470200080000000049050008550B0008B1
:10004000A3010008A3010008A30100083509000866
:10005000A3010008A3010008A3010008A3010008F0
:10006000A3010008A3010008A3010008A3010008E0
:10007000A3010008A3010008A3010008A3010008D0
:10008000A3010008A3010008A3010008A3010008C0
:10009000A3010008A3010008A3010008A3010008B0
:1000A000A3010008A3010008A3010008A3010008A0
:1000B000A3010008A3010008A3010008A301000890
:1000C000A3010008A3010008A3010008A301000880
:1000D000A3010008A3010008A3010008A301000870
:1000E000A3010008A3010008A301000800F002F822
:1000F00000F03AF80AA090E8000C82448344AAF188
:100100000107DA4501D100F02FF8AFF2090EBAE885
:100110000F0013F0010F18BFFB1A43F0010318473B
:10012000380E0000580E0000103A24BF78C878C17D
:10013000FAD8520724BF30C830C144BF04680C60ED
:10014000704700000023002400250026103A28BF35
:1001500078C1FBD8520728BF30C148BF0B60704739
:100160001FB51FBD10B510BD00F031F81146FFF7E7
:10017000F7FF00F08CFE00F04FF803B4FFF7F2FF3A
:1001800003BC00F057F800000948804709480047C1
:10019000FEE7FEE7FEE7FEE7FEE7FEE7FEE7FEE737
:1001A000FEE7FEE704480549054A064B7047000094
:1001B000590B0008ED0000087000002070060020B8
:1001C000700200207002002070477047704775462B
:1001D00000F02CF8AE4605006946534620F00700B3
:1001E000854618B020B5FFF7DDFFBDE820404FF091
:1001F00000064FF000074FF000084FF0000B21F011
:100200000701AC46ACE8C009ACE8C009ACE8C009DD
:10021000ACE8C0098D46704710B50446AFF30080C6
:100220002046BDE81040FFF7A8BF00000048704717
:100230001000002001491820ABBEFEE72600020096
:10024000704700BFFEE770470549096821F01001BB
:10025000034A1160114609680143116070470000AC
:100260000020024001460020034A106800F03800D8
:100270000843106070470000002002402DE9F04163
:10028000024600250026002000230024002791F8C4
:1002900003C00CF00F0591F803C00CF0100CBCF17A
:1002A000000F03D091F802C04CEA050591F800C098
:1002B000BCF1000F31D0146800202BE04FF0010C8E
:1002C0000CFA00F3B1F800C00CEA03069E4220D1FC
:1002D00083004FF00F0C0CFA03F7BC4305FA03FC44
:1002E0004CEA040491F803C0BCF1280F06D14FF08A
:1002F000010C0CFA00FCC2F814C00AE091F803C02B
:10030000BCF1480F05D14FF0010C0CFA00FCC2F80B
:1003100010C0401C0828D1D31460B1F800C0BCF153
:10032000FF0F34DD546800202EE000F1080C4FF080
:10033000010808FA0CF3B1F800C00CEA03069E426B
:1003400021D183004FF00F0C0CFA03F7BC4305FAE0
:1003500003FC4CEA040491F803C0BCF1280F05D15A
:1003600000F1080C08FA0CF8C2F8148091F803C0E8
:10037000BCF1480F07D100F1080C4FF0010808FA52
:100380000CF8C2F81080401C0828CED35460BDE899
:10039000F0810246002093680B400BB1012000E081
:1003A000002070470AB1016100E041617047000020
:1003B00010B5002440215048FFF7EBFF20B1042185
:1003C0004E48FFF7E6FF10B900204D490870802124
:1003D0004948FFF7DEFF88B9022000F035FD802193
:1003E0004548FFF7D6FF00287DD100BF8021424855
:1003F000FFF7CFFF0028F9D0032010BD04213F48AC
:10040000FFF7C7FF002837D13D480078A0BB022086
:1004100000F01AFD04213948FFF7BBFF60BB25E05F
:1004200040213548FFF7B5FF00BB022000F00CFD6E
:1004300040213148FFF7ADFFC0B9002404E0601C43
:1004400084B2142000F00CFD40212B48FFF7A1FFDF
:1004500018B94EF660208442F1DB4EF660208442EB
:1004600002DB0120264908700120C6E70421234849
:10047000FFF78FFF0028D3D040211F48FFF789FFE7
:1004800088BB1F48007870BB022000F0DDFC4021D3
:100490001948FFF77EFF30BB26E004211748FFF71D
:1004A00078FF08BB022000F0CFFC04211348FFF7BF
:1004B00070FFC8B9002404E0601C84B2142000F06E
:1004C000CFFC04210D48FFF764FF18B94EF66020F9
:1004D0008442F1DB4EF66020844202DB01200849B1
:1004E0000870022089E705E040210348FFF751FF2B
:1004F0000028D2D0002080E700080140000C014015
:100500000200002000BFFEE70146CA1701EB92720D
:100510009210A1EB820292B9642091FBF0F200FBF1
:10052000121050B94FF4C87091FBF0F200FB12109A
:1005300008B9012070470020FCE70120FAE70020FD
:10054000F8E700BFFEE770477047000029B1064A90
:1005500092690243044B9A6104E0034A9269824320
:10056000014B9A61704700000010024010B500F086
:100570002FF84FF4803000F083F800F0DFF80446E5
:10058000012C24D14FF4E011000400F0BDF800204C
:1005900000F06AF8A00200F099F8002000F0A2F83C
:1005A0000220FFF75FFE1020FFF74EFE012000F053
:1005B000A5F800BF392000F031F80028FAD0022059
:1005C00000F0B0F800BF00F047F80828FBD110BDDC
:1005D0000F48006840F001000D4908600846406877
:1005E0000C4908400A494860084600680A49084022
:1005F000074908600846006820F480200860084623
:10060000406820F4FE0048604FF41F008860704787
:10061000001002400000FFF8FFFFF6FE10B5014693
:100620000022002300204A11012A02D1094C23682C
:1006300006E0022A02D1074C236A01E0054C636AF6
:1006400001F01F02012494401C400CB1012000E085
:10065000002010BD001002400248406800F00C006D
:10066000704700000010024001460020034A506815
:1006700020F0F00008435060704700000010024076
:100680001149096821F480310F4A11601146096847
:1006900021F480211160B0F5803F03D0B0F5802FA8
:1006A0000ED106E00849096841F48031064A11601C
:1006B00007E00549096841F4A021034A116000E000
:1006C00000BF00BF7047000000100240014600203C
:1006D000034A506820F4E06008435060704700000F
:1006E0000010024001460020034A506820F4605088
:1006F00040EAC1005060704700100240014908669E
:10070000704700000000424202460020044B586837
:1007100020F47C1042EA01031843014B58607047F3
:100720000010024001460020034A506820F00300F8
:1007300008435060704700000010024038B50020A8
:1007400000900024002500BF3120FFF767FF054619
:100750000098401C00900098B0F5A06F01D0002DCB
:10076000F2D03120FFF75AFF08B1012400E0002445
:10077000204638BD024909888143014A11807047EB
:100780000428004070B500260024002500F07AF807
:1007900006463848B6FBF0F437480088A0423CD003
:1007A00035490C8040F2B27510E02846FFF7ACFEE8
:1007B00040B1B4F5B77F02D3A4F5B77404E0681C68
:1007C00085B206E0A4F26D14681C85B2B4F5B67F5C
:1007D000EBD800BF29488580002516E02749888886
:1007E000FFF792FE30B1012D04D11D2C01D31D3C29
:1007F00009E00CE02248405DA04203D82048405D5B
:10080000241A00E003E0681C85B21C2CE6D200BF6D
:10081000681C1A498871601CC8711648B6FBF0F153
:1008200000FB11644FF46160B4FBF0F013490870F1
:100830004FF46160B4FBF0F100FB11403C21B0FBD0
:10084000F1F00E4948704FF46160B4FBF0F100FB29
:1008500011403C21B0FBF1F201FB12000749887006
:100860000B46DA799979988800F028F803490872DC
:10087000002070BD80510100000000200400002015
:10088000400F0008002103480188001F008841EA4A
:10089000004070471C28004001460020064A12888C
:1008A0000A40D0B2044A121F12880A4012B108B19D
:1008B000012000E00020704704280040F0B5034606
:1008C0000C461546642093FBF0F0C6B2642093FBFF
:1008D000F0F700FB1730C1B2132E02DD01F1640006
:1008E000C1B20846CF1701EB977701EBA707BAB261
:1008F000072092FBF0F700FB172082B25719601E09
:10090000DFF82CC01CF80000384482B2CF1701EB8E
:100910009777BF10A1EB87071FB9032C01DA501E90
:1009200082B2072092FBF0F700FB1720C0B2F0BDA7
:100930004C0F000810B50120FFF7AEFF002859D07A
:10094000FFF720FF2E4800780A2190FBF1F0C4B297
:10095000052300222146C02000F064F928480078D1
:100960000A2190FBF1F201FB1200C4B20523002220
:100970002146C12000F056F905224021C22000F096
:10098000CCF91F4840780A2190FBF1F0C4B205234E
:1009900000222146C32000F045F9194840780A2179
:1009A00090FBF1F201FB1200C4B2052300222146A4
:1009B000C42000F037F905224021C52000F0ADF930
:1009C0000F4880780A2190FBF1F0C4B20523002281
:1009D0002146C62000F026F9094880780A2190FBBC
:1009E000F1F201FB1200C4B2052300222146C72008
:1009F00000F018F90520FFF7BDFE00F003F810BD68
:100A00000400002000BF0348008800F020000028F8
:100A1000F9D070470428004010B500224FF48051EF
:100A20000148FFF7BFFC10BD0008014010B50022CF
:100A30004FF400610148FFF7B5FC10BD000801400C
:100A4000704710B500F002F810BD00000CB5002092
:100A5000019000903348006840F4803031490860CC
:100A600000BF3048006800F4003000900198401C3E
:100A70000190009818B90198B0F5A06FF1D12948FC
:100A8000006800F4003010B10120009001E0002067
:100A900000900098012843D12348006840F01000DE
:100AA000214908600846006820F0030008600846F5
:100AB000006840F0020008601A4840681949486020
:100AC0000846406848600846406840F480604860D6
:100AD0000846406820F47C1048600846406840F4AE
:100AE000E81048600846006840F08070086000BF69
:100AF0000C48006800F000700028F9D009484068F0
:100B000020F00300074948600846406840F00200B2
:100B1000486000BF0348406800F00C000828F9D185
:100B20000CBD0000001002400020024010B5012260
:100B300011030248FFF736FC10BD00000008014019
:100B400010B50122D1020248FFF72CFC10BD0000B5
:100B5000000801407047000010B51348006840F0DD
:100B600001001149086008464068104908400E49D4
:100B70004860084600680E4908400B49086008466E
:100B8000006820F4802008600846406820F4FE00D9
:100B900048604FF41F008860FFF753FF4FF000607C
:100BA0000449086010BD0000001002400000FFF87A
:100BB000FFFFF6FE08ED00E02DE9F04180460C460F
:100BC00015461E4600F0DEF8402000F0F3F800F075
:100BD00096F80A2000F044F900F0D4F8404600F0FE
:100BE000E9F8002705E0207800F0E4F8641C781CA0
:100BF000C7B2AF42F7DB00F082F80A2000F030F90C
:100C0000304600F06CF8BDE8F0811FB50020009080
:100C1000019002900390002310226946C020FFF744
:100C2000CBFF1FBD2DE9F04180460C4615461E4600
:100C300000270A2C24D2DFE804F005080B0E11145B
:100C4000171A1D20204807781CE01F48477819E034
:100C50001D48877816E01C48C77813E01A480779C2
:100C600010E0194847790DE0174887790AE01648DF
:100C7000C77907E01448077A04E01348477A01E08F
:100C8000002700BF00BF012D02D107F18000C7B2CD
:100C900000F078F8442000F08DF800F030F80A20D9
:100CA00000F0DEF800F06EF8404600F083F83846B9
:100CB00000F080F800F023F80A2000F0D1F8304668
:100CC00000F00DF8BDE8F081360F000810B500F017
:100CD00059F8802000F06EF800F011F810BD10B542
:100CE0000446072C00DD072404F18800C4B200F09C
:100CF00049F8204600F05EF800F001F810BD10B58C
:100D0000FFF78AFE0A2000F0ABF8FFF719FF0A2070
:100D100000F0A6F8FFF70AFF10BD70B506460C46B6
:100D2000154600F02FF8442000F044F8FFF7E7FFE5
:100D30000A2000F095F800F025F8304600F03AF867
:100D4000204600F037F8FFF7DAFF0A2000F088F8B5
:100D50002846FFF7C4FF70BD08B501210420FFF746
:100D6000F5FB10208DF8030003208DF80200C0026F
:100D7000ADF8000069460248FFF780FA08BD0000A0
:100D80000008014010B50A2000F06AF8FFF7CEFE17
:100D9000FFF7D6FE0A2000F063F8FFF7C7FE012038
:100DA00000F05EF8FFF738FE012000F059F8FFF779
:100DB0003DFE10BD70B50446002519E0FFF736FE74
:100DC00004F0010010B1FFF7B1FE01E0FFF724FECF
:100DD000012000F045F8FFF7B3FE0A2000F040F8CC
:100DE000FFF724FE012000F03BF86410681CC5B238
:100DF000082DE3DBFFF710FE70BD000008B50121F0
:100E00000C20FFF7A3FB48208DF8030003208DF88A
:100E10000200C020ADF8000069460748FFF72EFA2F
:100E20000420ADF8000069460448FFF727FA0020C7
:100E30000349087008BD000000080140000C014093
:100E40000200002000BFFEE700B5034603E04FF4B8
:100E50007A7000F005F8181EA3F10103F7D100BD68
:100E600000EBC001C9004FF0E02251610021916107
:100E70000521116100BF4FF0E021096901F48031C3
:100E80000029F8D004214FF0E02211617047FFF7EC
:100E90006DFBFFF761FFFFF7B8FEFFF717FFFFF7E6
:100EA000ADFF00240A2094FBF0F0C5B20523002218
:100EB0002946C020FFF7B6FE0A2094FBF0F100FBA4
:100EC0001140C5B2052300222946C120FFF7AAFE22
:100ED00030E0FFF76DFA0546032D01D1002412E042
:100EE000012D06D1002C01DC00240CE0601EC4B2F0
:100EF00009E0022D06D1632C01DB632403E0601CB2
:100F0000C4B200E000BF0A2094FBF0F0C6B2052393
:100F100000223146C020FFF785FE0A2094FBF0F145
:100F200000FB1140C6B2052300223146C120FFF765
:100F300079FE00BFCDE73F065B4F666D7D077F6F93
:100F40001F1C1F1E1F1E1F1F1E1F1E1F0003030628
:100F50000104060205000305780F000800000020C8
:100F600004000000280100087C0F00080400002095
:0C0F70006C0600004401000800000000B6
:04000005080000ED02
:00000001FF
