:020000040800F2
:1000000088060020A1010008D5180008B1130008D7
:10001000D11800085712000845240008000000000D
:100020000000000000000000000000003521000872
:100030005B12000800000000491B0008492200086C
:10004000BB010008BB010008BB0100082920000813
:10005000BB010008BB010008BB010008BB01000890
:10006000BB010008BB010008BB010008BB01000880
:10007000BB010008BB010008BB010008BB01000870
:10008000BB010008BB010008BB010008BB01000860
:10009000BB010008BB010008BB010008BB01000850
:1000A000BB010008BB010008BB010008BB01000840
:1000B000BB010008BB010008BB010008BB01000830
:1000C000BB010008BB010008BB010008BB01000820
:1000D000BB010008BB010008BB010008BB01000810
:1000E000BB010008BB010008BB01000800F002F8DA
:1000F00000F047F80AA090E8000C82448344AAF17B
:100100000107DA4501D100F03CF8AFF2090EBAE878
:100110000F0013F0010F18BFFB1A43F0010318473B
:10012000FC3500001C360000103A24BF78C878C1A6
:10013000FAD8520724BF30C830C144BF04680C60ED
:10014000704700000023002400250026103A28BF35
:1001500078C1FBD8520728BF30C148BF0B60704739
:10016000662902F0FD84002070471FB500F036FBC1
:1001700004000020002102F023FAE0601FBD10B54A
:1001800010BD00F02BFC1146FFF7EFFF02F0A6F9BF
:1001900000F049FC03B4FFF7F2FF03BC00F08CFC55
:1001A0000948804709480047FEE7FEE7FEE7FEE70B
:1001B000FEE7FEE7FEE7FEE7FEE7FEE70448054947
:1001C000054A064B704700004D220008ED0000086C
:1001D0008800002088060020880200208802002075
:1001E0000FB41CB5074B06AA7B44694600900598DE
:1001F00000F0DBFA0020694600F0EAFA1CBC5DF86A
:1002000014FB0000E50500002DE9F0474FF0000A5F
:1002100089460446C0F820A02046E16888470028A7
:1002200076D0252806D0D4E901219047206A401CC9
:100230002062F1E7E168204600258847C4F81CA049
:1002400006460027C4F818A02A2E09D0304602F02E
:100250000FF938B304EB8708303EC8F8186019E08E
:1002600059F8041B204604EB87029161E168884736
:10027000012F064618D1E069002820DA25F0200574
:100280001DE0D8F8180000EB800006EB4000303885
:10029000C8F818002046E1688847064602F0E8F8EA
:1002A0000028EED1012F0AD02E2E08D12046E16879
:1002B00088477F1C0646022F45F02005C4DBA06955
:1002C000002803DA404245F00105A061E80701D0AB
:1002D00025F01005B6B1A6F14100192802D8203644
:1002E00045F400654A463146204625604D46FFF7F5
:1002F00037FF58B1012806D0ED1D25F0070000F1A9
:10030000080989E704E005F1040985E730468AE732
:10031000206ABDE8F08710B5203AC0F00B80B1E844
:100320001850203AA0E81850B1E81850A0E818502A
:10033000BFF4F5AF5FEA027C24BFB1E81850A0E833
:10034000185044BF18C918C0BDE810405FEA827C4D
:1003500024BF51F8043B40F8043B08BF7047D20764
:1003600028BF31F8023B48BF11F8012B28BF20F805
:10037000023B48BF00F8012B704770477047704739
:1003800070472DE9FF4F0C461E464FF0FF378BB0EC
:10039000D2E90001DDF860800A908A46C1F30A556F
:1003A00005B93D46002108464FF00000BAF1000FA4
:1003B00000F4400005DA00EB80004FF4400101EA50
:1003C00050004FEA9059B9F1010F00DDB9460A9883
:1003D00050EA4A000ED044F61050A5F2FF354543CE
:1003E0002F14B8F1000F1ED07542291E1EDDC9F171
:1003F00000021CE0B8F1010F4FF0000001D03021E5
:1004000003E0F24305E02154401CB042FBDB3046E0
:100410000022002121540B99C1F80880C1E9002075
:100420000FB0BDE8F08FBD1B6D1CDEE74A4600DA59
:10043000694206A800F05CFA06AB93E8070003AB3C
:1004400083E8070050460A9900F03DFB8DE807005D
:10045000A0F500501F3800900398002D0ADD42F2ED
:100460001F014A460844002303A90390684600F090
:10047000A6FD09E0A0F500504A461F38002303A955
:100480000390684600F0B0FD8DE807000004000C02
:1004900003D04FF0FF30410800E01046B8F1000FE4
:1004A00003D00022009215461EE0751E05D400F010
:1004B00099F9303262556D1EF9D5B34601220843D1
:1004C00002D000227F1C04E02078302801D10022D5
:1004D0007F1E002A099784D01DE0112D07DA00F055
:1004E00081F9303262556D1C50EA0102F5D10843A2
:1004F00002D00098C8B10EE00021681E05E0235C20
:10050000625C63542254401E491C8142F7DBAB46B7
:10051000A81B401E0990002004F80B000B98099AB4
:10052000C0F80880C0E9002B7AE711264FF00008D8
:1005300057E72DE9F04F88460446D21D22F0070107
:1005400091B0D1E90001CDE90A0101F07DFF024639
:100550000B98C00F01D02D2007E02068810701D53E
:100560002B2002E0202101EAC000032A099001D0DB
:10057000072A05DB03464146204600F079F90BE1E6
:100580002078800601D5E06900E00620B8F1650F0B
:10059000814606D0B8F1660F18D0B8F1670F70D158
:1005A00031E00020B9F1110F009001DB112301E0CF
:1005B00009F101030AAA01A90CA8FFF7E2FEDDE98F
:1005C0000C70002609F10105834647E001204B46E7
:1005D00000904FF000470AAA01A90CA8FFF7D1FE2E
:1005E000DDE90DB00C995D46002610B909F1010056
:1005F0000D18B9EB050003D4C0F1FF3609F1010570
:10060000A5EB09002BE0B9F1010F01DA4FF0010968
:100610000020B9F1110F0090484601DD112300E0E0
:1006200003460AAA01A90CA8FFF7ABFEDDE90C708E
:100630004D4600268346207800070AD4AB4500DAF1
:100640005D4601A8012D04DD411911F8011C302976
:1006500007D04F4502DA17F1040F04DA0120824671
:100660000FE06D1EEEE7002F02DCED1B3E4403E0C1
:10067000781CA84200DD7D1CB81B00F1010A4FF078
:1006800000472078000703D4AA4501DB4FF0FF3A6A
:100690000021B7F1004F0DF143088DF8431024D02D
:1006A00002202B23002F01DA7F422D230A21021E74
:1006B000A0F1010000DC5FB197FBF1FC97FBF1F2C8
:1006C00001FB1C7C17460CF1300C08F801CDEEE75D
:1006D000A8F1010003702188090501D5452100E03A
:1006E0006521A0F1010800F8011C09980FA9A1EBF0
:1006F0000807FF1D00B10120411901EBEA70A16953
:100700003844081A401EA0612078C00602D4204652
:10071000AFF30080099828B1D4E901219047206AFD
:10072000401C20622078C00622D52046AFF300800E
:100730001EE0002E04DBB34502DD01A8805D00E071
:100740003020D4E901219047206A401C2062761CA9
:10075000AAF101005FEA000A0AD100F03FF8C06880
:100760000168405CD4E901219047206A401C206266
:10077000281EA5F10105DCDC07E0D4E9012118F809
:10078000010B9047206A401C2062381EA7F1010728
:10079000F3DC2046AFF30080032011B041E60000F7
:1007A00001694A1C02610878704700B58FB0CDE935
:1007B00001310021059105497944CDE90310114625
:1007C0006846FFF721FD0FB000BD0000E5FFFFFF09
:1007D0000A6802F8010B0A60704700000048704781
:1007E0004400002030B5B0F10A024FEA900E71F1DA
:1007F00000034EEA817EB0EB0E0061EB91014FEAFF
:10080000101E4EEA017E10EB0E0041EB11114FEA73
:10081000102E4EEA016E10EB0E0041EB11214FEA53
:10082000104E4EEA014E10EB0E0041EB1141401804
:1008300041F100014FEAD00040EA41704FEAD10196
:1008400010EB80054FEA810444EA907444EB010404
:100850006D1944EB0404521BA3414FF0000348BF41
:100860000A3200D530BD401C41F1000130BD00000E
:100870002DE9F0411F46044603260168072A01F4CA
:10088000006004DB08B116A505E016A503E008B179
:1008900015A500E015A521F010002060A069C01E7C
:1008A000A0610FB1401EA0612046AFF300804FB1A0
:1008B000D4E9012138469047206A401C2062C01CC0
:1008C000206206E0206AFAE7D4E9012115F8010B5D
:1008D0009047761EF8D22046AFF30080BDE8F08145
:1008E0004E414E006E616E00494E4600696E6600D4
:1008F0002DE9F047814616468AB0354878440DC840
:100900008DE80D0032487844801C03AC0DC884E8A3
:100910000D0041F69B300844372190FBF1F290FB2B
:10092000F1F5A5F1800501FB12041B3C02D56442E0
:10093000012000E00020DFF898A080460027FA445C
:10094000AAF1BE0A0EE0E0070AD03246684607EB7D
:10095000470101230AEB810100F046FB8DE8070007
:1009600064107F1C002CEED1194F7F44AE3F19E07C
:10097000E80715D007EB04100DF1180A90E80E00F7
:100980008AE80E00C068F04201D1981908903246FA
:10099000012306A903A800F027FB03AB83E80700A7
:1009A0006D10641C002DE3D14FF0010332466946FF
:1009B000B8F1000F03A802D000F001FB01E000F045
:1009C00013FBC9E90001C9F808200AB0BDE8F087A7
:1009D000042E000000487047240000207546FFF7F1
:1009E000F9FFAE4605006946534620F007008546EC
:1009F00018B020B5FFF7E2FBBDE820404FF000063D
:100A00004FF000074FF000084FF0000B21F00701F6
:100A1000AC46ACE8C009ACE8C009ACE8C009ACE839
:100A2000C0098D46704710B50446AFF300802046DC
:100A3000BDE81040FFF7AEBB4FF0013C50F8042B6F
:100A400051F8043B9A4221D1A2EB0C03934313EAE1
:100A5000CC1317D150F8042B51F8043B9A4215D10E
:100A6000A2EB0C03934313EACC130BD150F8042BE5
:100A700051F8043B9A4209D1A2EB0C03934313EAC9
:100A8000CC13DBD04FF00000704700BFD01A01BA82
:100A9000B1FA81F101F0180122FA01F0CB40C1F165
:100AA0002001DBB2C0B2C01A2CFA01F3D11A914373
:100AB00011EAC311E6D1704701491820ABBEFEE729
:100AC0002600020070475FEA400C08BF91F0000F5B
:100AD0004FEA8C234FEAC12243EA51514FEA1C509E
:100AE00018BF00F5F0404FEA300018BF41F0004158
:100AF0005FEA6C5C00F02980BCF1FF3F08BF40F06A
:100B000080407047130C06BF12044FF0100C4FF0DA
:100B1000000C130E04BF12020CF1080C130F04BFDB
:100B200012010CF1040C930F04BF92000CF1020CA3
:100B3000D30F04BF52000CF1010C11464FF000021C
:100B4000A0F11F00A0EB0C00704711F0004F08BF90
:100B5000704731F000413FF4D5AF0B0C06BF0904DC
:100B60004FF0100C4FF0000C0B0E04BF09020CF1FB
:100B7000080C0B0F04BF09010CF1040C8B0F04BF10
:100B800089000CF1020CCB0F04BF49000CF1010CE1
:100B9000CCF12003A0EB0C0022FA03F302FA0CF2D2
:100BA00041EA030100F10100704720F07F4C80EA28
:100BB000030023F07F47ACEB070303F57C5300F001
:100BC000004003F1FF032DE980494FEA154B09B4BA
:100BD0004FEA144325EA0B4E24EA03480FF2042699
:100BE00006EB132749083E785FEA320203FB0667EB
:100BF000C7F5000707FB06F64FEA54374FEAD6461B
:100C000006F1020607FB066CCCF1005C4FEA1C47BC
:100C10002CEA074C07FB06F40CFB06F504EB154623
:100C20004FEA961634BF00204FF000404FEAD1370C
:100C300006FB07FC4FEA1C4C0CFB0BF7D21B03FB1B
:100C40000CF761EB07010CFB0EF7B0EB074072EB02
:100C500017420CFB08F734BFA2EB0742B2EB074286
:100C600061EB17414FEA0C444FEA910706FB07FC82
:100C70004FEA1C4C0CFB0BF7B0EBC74072EB573242
:100C800003FB0CF734BFA2EBC742B2EBC74261EBE8
:100C900057310CFB0EF7B0EBC70072EB57720CFB31
:100CA00008F734BFA2EBC702B2EBC70261EB577182
:100CB000039F4FEA816141EA921104EBCC044FEAB1
:100CC000D1374FEA826206FB07FC42EA90124FEAF4
:100CD00080604FEA1C4C0CFB0BF7D21B03FB0CF79C
:100CE00061EB07010CFB0EF7B0EB074072EB17420C
:100CF0000CFB08F734BFA2EB0742B2EB074261EBF3
:100D000017414FEA8C554FEA910704EB9C2406FBF0
:100D100007FC4FEA1C4C0CFB0BF7B0EBC74072EB27
:100D2000573203FB0CF734BFA2EBC742B2EBC7420A
:100D300061EB57310CFB0EF7B0EBC70072EB57724B
:100D40000CFB08F734BFA2EBC702B2EBC70261EBA2
:100D5000577115EB4C254FEA816141EA92114FEA38
:100D600082624FEAD13742EA901206FB07FC44F157
:100D700000044FEA80604FEA1C4C0CFB0BF7D21BBF
:100D800003FB0CF761EB07010CFB0EF7B0EB074020
:100D900072EB17420CFB08F734BFA2EB0742B2EB31
:100DA000074261EB174115EB1C154FEA813141EA0F
:100DB00092414FEA823242EA90424FEA80304FEA53
:100DC0000C7644F1000448EA03434EEA0B484FF026
:100DD000000EB2EB080C71EB030724BF62463946E4
:100DE0004EEB0E0E4FF0000B0018524149414BEBF9
:100DF0000B0BB2EB080C71EB03077BF1000B24BF6C
:100E0000624639464EEB0E0E4FF0000B0018524171
:100E100049414BEB0B0BB2EB080C71EB03077BF179
:100E2000000B24BF624639464EEB0E0E51EA020714
:100E300018BF46F0010616EB0E7655F1000254F18C
:100E4000000103D5BDE88901BDE80088BDE889013E
:100E5000BDE80048B619524141EB0101A3F101037D
:100E6000704780807F7E7D7C7B7A79787776767517
:100E70007473727171706F6E6E6D6C6C6B6A6A698F
:100E80006868676666656464636362616160605F29
:100E90005F5E5E5D5D5C5C5B5B5A5A5959585857A2
:100EA000575656555555545453535252525151500A
:100EB00050504F4F4F4E4E4D4D4D4C4C4C4B4B4B5D
:100EC0004A4A4A49494948484847474747464646A3
:100ED00045454544444444434343434242424241DE
:100EE0004141002B9C4630D477002BD01CB54FEAF3
:100EF000370703B44FF010004FF01001BAF1000FA4
:100F000006D0BCF1000FDCBF40F0080040F0080143
:100F10004FF000000FBCBDE810400BF1010BBBF11E
:100F2000010F08BF5FEA170722BF12F1010211F19A
:100F300001014FF0004143F1000300F0004043EA9B
:100F400000007047F9D35708D0E746EA064613F188
:100F5000400F4FEA16461FDD13F1200FDFBF164387
:100F60000A46002120335B42BED0C3F1200746EA87
:100F7000064602FA07F74FEA164646EA0706C3F1A5
:100F8000200722FA03F201FA07F721FA03F14FF0E2
:100F9000000342EA0702A7E746EA020646EA0646D7
:100FA0004FEA164646EA0106BCBF46EA0646360C3C
:100FB0004FF000034FF000024FF0000194E72DE9DD
:100FC000804C9A46934670B491E8380007C831EADD
:100FD000400C48BF34EA430C03D5FFF7E6FDFFF7AA
:100FE00080FFF0BCBDE8008C2DE9804C9A4693460A
:100FF00070B491E8380007C810F0804F08BF13F0B4
:10100000804F03D100F005F8FFF76BFFF0BCBDE89F
:10101000008C20F07F4780EA030023F07F4C07EB31
:101020000C03A3F57C5300F00040A3F1FE0392F003
:10103000000F00F0B38095F0000F00F077802DE9ED
:1010400001494FEA11404FEA144621EA004800FBEB
:1010500006FC24EA064708FB06F607FB08F800FB37
:1010600007F718EB06484CEB164C4FEA124B18EBFF
:1010700007484FEA15464CEB174022EA0B4E0BFB94
:1010800006FC25EA06470EFB06F607FB0EFE0BFBE9
:1010900007F71EEB064E4CEB164C4FF000061EEB0E
:1010A000074E4CEB174B18EB0B0840F1000018EB08
:1010B0000E0B58EB000840F100008F1A4FF00001B2
:1010C0003CBFC943661B14BFB5EB040C00213CBFF9
:1010D000C943F61B4FEA17444EEA8E0E27EA044531
:1010E0004FEA1C4704FB07622CEA074C05FB07F795
:1010F0000CFB05F604FB0CFC16EB074642EB174213
:1011000016EB0C4642EB1C421BEB060658EB0202A8
:10111000414146EA9E0601D5BDE80189B619524112
:1011200041EB0101A3F10103BDE801894FEA144538
:101130004FEA114724EA054621EA074C05FB07F46C
:1011400006FB07F70CFB06F105FB0CFC11EB074156
:1011500044EB17444FEA124711EB0C4144EB1C449B
:1011600022EA074C05FB07F206FB07F70CFB06F625
:1011700005FB0CFC16EB074642EB174216EB0C4640
:1011800042EB1C456A1854F1000148BF7047B6197C
:10119000524141EB0101A3F10103704795F0000FAB
:1011A00037D04FEA11424FEA144721EA024624EAB7
:1011B000074C02FB07F106FB07F70CFB06F402FBEA
:1011C0000CFC14EB074441EB17414FEA154714EBB5
:1011D0000C4441EB1C4125EA074C02FB07F506FBDA
:1011E00007F70CFB06F602FB0CFC16EB074645EB7B
:1011F000174516EB0C4645EB1C42121951F1000144
:1012000048BF7047B619524141EB0101A3F10103F8
:1012100070474FEA14454FEA114724EA054621EA90
:10122000074C05FB07F106FB07F70CFB06F24FF036
:10123000000605FB0CFC12EB074241EB174112EBD9
:101240000C4251EB1C4148BF7047921841EB010121
:10125000A3F10103704700BFFEE770470549096825
:1012600021F01001034A1160114609680143116021
:10127000704700000020024001460020034A106829
:1012800000F0380008431060704700000020024062
:101290002DE9F0410246002500260020002300240D
:1012A000002791F803C00CF00F0591F803C00CF073
:1012B000100CBCF1000F03D091F802C04CEA0505F8
:1012C00091F800C0BCF1000F31D0146800202BE071
:1012D0004FF0010C0CFA00F3B1F800C00CEA030661
:1012E0009E4220D183004FF00F0C0CFA03F7BC4351
:1012F00005FA03FC4CEA040491F803C0BCF1280F82
:1013000006D14FF0010C0CFA00FCC2F814C00AE040
:1013100091F803C0BCF1480F05D14FF0010C0CFA55
:1013200000FCC2F810C0401C0828D1D31460B1F8EA
:1013300000C0BCF1FF0F34DD546800202EE000F146
:10134000080C4FF0010808FA0CF3B1F800C00CEAE1
:1013500003069E4221D183004FF00F0C0CFA03F7D5
:10136000BC4305FA03FC4CEA040491F803C0BCF149
:10137000280F05D100F1080C08FA0CF8C2F8148007
:1013800091F803C0BCF1480F07D100F1080C4FF0F1
:10139000010808FA0CF8C2F81080401C0828CED3C7
:1013A0005460BDE8F0810AB1016100E0416170471D
:1013B00000BFFEE700B585B00121082000F0D6FB94
:1013C0000121480500F0C2FBC020ADF81000032049
:1013D0008DF812001C208DF8130004A90F48FFF7A8
:1013E00057FF0F4800900020ADF804004BF6FF7047
:1013F000ADF80600C020ADF808004FF48040ADF80D
:101400000C000011ADF80A006946064800F082F9A8
:101410000121044800F03DF905B000BD000C014079
:10142000A0860100005400402DE9F04105468846A1
:1014300014461E4600BF4FF40031364800F04DF907
:101440000028F8D10121334800F02FF900BF3249BC
:10145000304800F009F90028F9D0002229462D482B
:1014600000F0D2F900BF2D492A4800F0FDF800280D
:10147000F9D04146274800F0D0F900BF2749891C20
:10148000244800F0F1F80028F8D00121214800F0AC
:101490000CF900BF20491F4800F0E6F80028F9D0F9
:1014A000012229461B4800F0AFF900BF1A49491C28
:1014B000184800F0D9F80028F8D0002711E00121E1
:1014C000144800F0C5F800BF1549124800F005F9AE
:1014D0000028F9D00F4800F093F92070641C781CA4
:1014E00087B2701EB842EADC00210A4800F0B0F86A
:1014F00000BF0B49074800F0F0F80028F9D0054874
:1015000000F07EF920700121024800F0DAF8BDE811
:10151000F081000000540040010003008200070039
:10152000400000102DE9F0410546884614461E464D
:1015300000BF4FF40031204800F0CFF80028F8D168
:1015400001211D4800F0B1F800BF1C491A4800F005
:101550008BF80028F9D000222946174800F054F9EA
:1015600000BF1749144800F07FF80028F9D0414621
:10157000114800F052F900BF1149891C0E4800F0D3
:1015800073F80028F8D000270EE021780A4800F010
:1015900044F900BF0A49891C074800F065F8002893
:1015A000F8D0641C781C87B2B742EEDB01210248F8
:1015B00000F087F8BDE8F08100540040010003000E
:1015C0008200070070B504460E46154600BF4FF472
:1015D00000311C4800F081F80028F8D10121194899
:1015E00000F063F800BF1849164800F03DF80028E5
:1015F000F9D000222146134800F006F900BF134934
:10160000104800F031F80028F9D031460D4800F0BC
:1016100004F900BF0D49891C0A4800F025F800288C
:10162000F8D02946074800F0F8F800BF0749891CA0
:10163000044800F019F80028F8D00121014800F012
:1016400040F870BD00540040010003008200070014
:1016500021B1028842F48062028004E002884FF6E1
:10166000FF331A400280704770B5024600240025FF
:1016700000230020958A138B1B0445EA030626F0FD
:101680007F4404EA01068E4201D1012000E00020DF
:1016900070BD21B1028842F00102028004E002889C
:1016A0004FF6FE731A400280704721B1028842F45F
:1016B0008072028004E002884FF6FF631A400280C5
:1016C000704721B1028842F40072028004E002886F
:1016D0004FF6FF531A40028070470CB502460020B7
:1016E00000230193009300920B0F019321F07F419F
:1016F000019B1BB1009B1433009303E0090C009B7A
:1017000018330093009B1B680B400BB1012000E0D5
:1017100000200CBD2DE9F04385B004460D4600269F
:10172000B1460427DFF8CC80A6884FF6C07006408B
:10173000684600F083FADDF808802F48B8FBF0F027
:101740001FFA80F946EA0906A68020884FF6FE7146
:101750000840208000262949286888420CD828683B
:101760004000B8FBF0F087B2042F00DA04273E43B4
:1017700009F10100208427E0E8884BF6FF718842D8
:1017800006D1286800EB4000B8FBF0F087B209E012
:10179000286800EBC00101EB0010B8FBF0F087B245
:1017A00047F48047C7F30B0008B947F0010747F437
:1017B000004006434FF4967009FB00F04FF47A7135
:1017C00090FBF1F0401C2084A683208840F00100AB
:1017D000208026884FF6F5300640A888698908439E
:1017E00006432680A88929890843208105B0BDE8E1
:1017F000F083000000127A0040420F00A086010032
:101800000146088AC0B2704712B141F0010102E0FE
:101810004FF6FE73194001827047018270470146FE
:10182000CA1701EB92729210A1EB820292B9642066
:1018300091FBF0F200FB121050B94FF4C87091FB0D
:10184000F0F200FB121008B9012070470020FCE7FD
:101850000120FAE70020F8E72DE9F04786B00223DF
:1018600004AA00219E20FFF7DFFD9DF810A00024B0
:10187000154D0AF0800040B1144D6FEA0A0000F0E7
:10188000FF0A0AF1010000F0FF0A9DF8111048114B
:1018900000F054FF00224FF07F53CDE9000100F02B
:1018A00077FF06460F46504600F05FFF80463246FF
:1018B0003B4600F09BFE22462B46CDE9020100F09C
:1018C00067FF06B0BDE8F0870000F03F0000F0BF02
:1018D00000BFFEE7704700002DE9F04705460C46C3
:1018E0001646A01CC4B24FF0000AD14638E005F1FC
:1018F000B000C2B200217820FFF764FE2746E0174F
:1019000004EB107000111030C2B200217820FFF7F4
:1019100059FEE01704EB10700011A4EB0010C2B2E6
:1019200000217820FFF74EFE4FF0000A0FE008EB91
:1019300046100E490A5C40217820FFF743FE08F16B
:10194000010000F0FF080AF1010000F0FF0ABAF1FF
:10195000100FECDB681CC5B209F1010000F0FF09B3
:10196000B9F1020FC3DBBDE8F0870000863500083F
:101970002DE9F04705460C461646A01CC4B24FF0B0
:10198000000AD1463AE005F1B000C2B20021782049
:10199000FFF718FE2746E01704EB10700011103017
:1019A000C2B200217820FFF70DFEE01704EB1070A3
:1019B0000011A4EB0010C2B200217820FFF702FE54
:1019C0004FF0000A11E008EB0610A0F500700E4978
:1019D0000A5C40217820FFF7F5FD08F1010000F0D6
:1019E000FF080AF1010000F0FF0ABAF1080FEADB74
:1019F000681CC5B209F1010000F0FF09B9F1020F3E
:101A0000C1DBBDE8F0870000862F000870B50646F0
:101A10000C46002508E02278E806010E3046FFF764
:101A2000A7FF641C681CC5B220780028F3D170BDE4
:101A300070B5B0241BE0224600217820FFF7C2FDDC
:101A4000102200217820FFF7BDFD002211467820EA
:101A5000FFF7B8FD002506E0002240217820FFF7BF
:101A6000B1FD681CC5B2832DF6DD601CC4B2B72C75
:101A7000E1DD70BD08B506A00068009003236A464A
:101A800000217820FFF74EFD642000F0F8FC08BD2F
:101A9000AE8D100008B506A00068009001236A46CC
:101AA00000217820FFF73EFD642000F0E8FC08BD2F
:101AB000AF00000070B5064600241FE004F1B0003E
:101AC000C2B200217820FFF77DFD1022002178208E
:101AD000FFF778FD002211467820FFF773FD0025FF
:101AE00008E005EBC410325C40217820FFF76AFD66
:101AF000681CC5B2802DF4DB601CC4B2082CDDDB91
:101B000070BD000000B587B0182209A101A8FEF73A
:101B100002FCFFF7AFFFFFF78BFF182301AA00219C
:101B20007820FFF7FFFCFFF7B5FF07B000BD00000E
:101B30000010D580A83FD30040B08D14A1C8DA12A0
:101B400081FFD9F1DB30A4A67047000029B1064A15
:101B5000D2690243044BDA6104E0034AD26982434A
:101B6000014BDA61704700000010024029B1064ABB
:101B700092690243044B9A6104E0034A92698243EA
:101B8000014B9A61704700000010024010B500F050
:101B90002FF84FF4803000F0EDF800F049F90446DA
:101BA000012C24D14FF4E011000400F027F90020AB
:101BB00000F0D4F8A00200F003F9002000F00CF9C6
:101BC0000220FFF759FB1020FFF748FB012000F02F
:101BD0000FF900BF392000F09BF80028FAD002204E
:101BE00000F01AF900BF00F0B1F80828FBD110BDD1
:101BF0000F48006840F001000D4908600846406841
:101C00000C4908400A494860084600680A490840EB
:101C1000074908600846006820F4802008600846EC
:101C2000406820F4FE0048604FF41F008860704751
:101C3000001002400000FFF8FFFFF6FE30B5002163
:101C40000022002400232D4D6D6805F00C0121B108
:101C5000042905D0082923D105E0294D056022E09B
:101C6000274D05601FE0254D6D6805F47012234D6A
:101C70006D6805F48034022505EB92421CB9214DB4
:101C8000554305600BE01D4D6D6805F400351DB131
:101C90001C4D5543056002E0194D5543056002E0B7
:101CA000174D056000BF00BF144D6D6805F0F001D1
:101CB0000909154D6B5C0568DD4045600F4D6D6889
:101CC00005F4E061090A104D6B5C4568DD408560F4
:101CD0000A4D6D6805F46051C90A0B4D6B5C45688F
:101CE000DD40C560054D6D6805F44041890B074D29
:101CF0006B5CC568B5FBF3F5056130BD00100240B3
:101D000000127A0000093D000000002010000020B1
:101D100010B501460022002300204A11012A02D1F9
:101D2000094C236806E0022A02D1074C236A01E02D
:101D3000054C636A01F01F02012494401C400CB161
:101D4000012000E0002010BD001002400248406861
:101D500000F00C0070470000001002400146002017
:101D6000034A506820F0F0000843506070470000BC
:101D7000001002401149096821F480310F4A1160B6
:101D80001146096821F480211160B0F5803F03D02D
:101D9000B0F5802F0ED106E00849096841F4803182
:101DA000064A116007E00549096841F4A021034A89
:101DB000116000E000BF00BF70470000001002404B
:101DC00001460020034A506820F4E0600843506058
:101DD000704700000010024001460020034A50688E
:101DE00020F4605040EAC10050607047001002408B
:101DF0000149086670470000000042420246002088
:101E0000044B586820F47C1042EA01031843014B4C
:101E1000586070470010024001460020034A506895
:101E200020F003000843506070470000001002409B
:101E300038B5002000900024002500BF3120FFF7B6
:101E400067FF05460098401C00900098B0F5A06F11
:101E500001D0002DF2D03120FFF75AFF08B1012444
:101E600000E00024204638BD024909888143014A28
:101E7000118070470428004070B50026002400251A
:101E800000F07AF806463848B6FBF0F43748008888
:101E9000A0423CD035490C8040F2B27510E0284693
:101EA000FFF7BDFC40B1B4F5B77F02D3A4F5B7741A
:101EB00004E0681C85B206E0A4F26D14681C85B2CB
:101EC000B4F5B67FEBD800BF29488580002516E021
:101ED00027498888FFF7A3FC30B1012D04D11D2CC0
:101EE00001D31D3C09E00CE02248405DA04203D82C
:101EF0002048405D241A00E003E0681C85B21C2CD9
:101F0000E6D200BF681C1A498871601CC871164867
:101F1000B6FBF0F100FB11644FF46160B4FBF0F02C
:101F2000134908704FF46160B4FBF0F100FB1140FD
:101F30003C21B0FBF1F00E4948704FF46160B4FBF6
:101F4000F0F100FB11403C21B0FBF1F201FB12006B
:101F5000074988700B46DA799979988800F028F853
:101F600003490872002070BD805101001400002058
:101F7000180000206E2F0008002103480188001F70
:101F8000008841EA004070471C28004001460020BC
:101F9000064A12880A40D0B2044A121F12880A4028
:101FA00012B108B1012000E0002070470428004071
:101FB000F0B503460C461546642093FBF0F0C6B21C
:101FC000642093FBF0F700FB1730C1B2132E02DD43
:101FD00001F16400C1B20846CF1701EB977701EB1E
:101FE000A707BAB2072092FBF0F700FB172082B2D6
:101FF0005719601EDFF82CC01CF80000384482B26C
:10200000CF1701EB9777BF10A1EB87071FB9032C00
:1020100001DA501E82B2072092FBF0F700FB172076
:10202000C0B2F0BD7A2F000810B50120FFF7AEFF57
:10203000002859D0FFF720FF2E4800780A2190FB96
:10204000F1F0C4B2052300222146C02000F02EF991
:10205000284800780A2190FBF1F201FB1200C4B27B
:10206000052300222146C12000F020F9052240214D
:10207000C22000F08DF91F4840780A2190FBF1F052
:10208000C4B2052300222146C32000F00FF91948ED
:1020900040780A2190FBF1F201FB1200C4B2052343
:1020A00000222146C42000F001F905224021C5206C
:1020B00000F06EF90F4880780A2190FBF1F0C4B26D
:1020C000052300222146C62000F0F0F80948807858
:1020D0000A2190FBF1F201FB1200C4B20523002299
:1020E0002146C72000F0E2F80520FFF7BDFE00F012
:1020F00003F810BD1800002000BF0348008800F05E
:1021000020000028F9D070470428004010B50022B4
:102110004FF480510148FFF746F910BD0008014017
:1021200010B500224FF400610148FFF73CF910BDE3
:1021300000080140704710B500F002F810BD000023
:102140000CB50020019000903348006840F48030C6
:102150003149086000BF3048006800F4003000904A
:102160000198401C0190009818B90198B0F5A06F33
:10217000F1D12948006800F4003010B1012000902E
:1021800001E0002000900098012843D12348006816
:1021900040F01000214908600846006820F0030064
:1021A00008600846006840F0020008601A4840686D
:1021B000194948600846406848600846406840F44D
:1021C000806048600846406820F47C1048600846FB
:1021D000406840F4E81048600846006840F08070AD
:1021E000086000BF0C48006800F000700028F9D0BB
:1021F0000948406820F003000749486008464068E5
:1022000040F00200486000BF0348406800F00C0046
:102210000828F9D10CBD0000001002400020024047
:1022200010B5012211030248FFF7BDF810BD0000F0
:102230000008014010B50122D1020248FFF7B3F8AF
:1022400010BD0000000801407047000010B51348A1
:10225000006840F0010011490860084640681049D4
:1022600008400E494860084600680E4908400B497E
:1022700008600846006820F480200860084640682E
:1022800020F4FE0048604FF41F008860FFF753FF02
:102290004FF000600449086010BD000000100240CB
:1022A0000000FFF8FFFFF6FE08ED00E02DE9F04129
:1022B00080460C4615461E4600270A2C24D2DFE82D
:1022C00004F005080B0E1114171A1D20204807787A
:1022D0001CE01F48477819E01D48877816E01C4825
:1022E000C77813E01A48077910E0194847790DE0DC
:1022F000174887790AE01648C77907E01448077A33
:1023000004E01348477A01E0002700BF00BF012D19
:1023100002D107F18000C7B200F059F8442000F064
:102320006EF800F027F80A2000F0C1F800F04FF82E
:10233000404600F064F8384600F061F800F01AF802
:102340000A2000F0B4F8304600F004F8BDE8F0814F
:10235000642F000810B50446072C00DD072404F1A3
:102360008800C4B200F033F8204600F048F800F0CE
:1023700001F810BD10B5FFF7C9FE0A2000F097F86C
:10238000FFF758FF0A2000F092F8FFF749FF10BD51
:1023900070B506460C46154600F019F8442000F0CA
:1023A0002EF8FFF7E7FF0A2000F081F800F00FF8A1
:1023B000304600F024F8204600F021F8FFF7DAFF5D
:1023C0000A2000F074F82846FFF7C4FF70BD10B56E
:1023D0000A2000F06CF8FFF723FFFFF72BFF0A201D
:1023E00000F065F8FFF71CFF012000F060F8FFF730
:1023F0008DFE012000F05BF8FFF792FE10BD70B576
:102400000446002519E0FFF78BFE04F0010010B12F
:10241000FFF706FF01E0FFF779FE012000F047F823
:10242000FFF708FF0A2000F042F8FFF779FE0120CD
:1024300000F03DF86410681CC5B2082DE3DBFFF71F
:1024400065FE70BD00BFFEE7490050EAC12018BF1D
:1024500004204A0D18BF40F0010040F2FF72B2EBB9
:10246000515F08BF40F00200012808BF05207047F7
:1024700030380A2801D2012070470020704700B58B
:10248000034603E04FF47A7000F011F8181EA3F130
:102490000103F7D100BD10B5044603E04FF47A7094
:1024A000FFF7EDFF201EA4F10104F7D110BD00EBF2
:1024B000C001C9004FF0E022516100219161052166
:1024C000116100BF4FF0E021096901F4803100295A
:1024D000F8D004214FF0E022116170479EB031A383
:1024E0000FCBCDE90323CDE90101FFF74FFBFEF749
:1024F00061FF0120FFF7CFFFFFF704FB51E000224F
:1025000010211046FFF7E8F9012220210020FFF7F3
:10251000E3F9022230210020FFF7DEF903224021F7
:102520000020FFF7D9F93A2250210020FFF720FAC6
:10253000042210210220FFF7CFF9052220210220DA
:10254000FFF7CAF9062230210220FFF7C5F907225A
:1025500040210220FFF7C0F90120FFF79CFFFFF7A1
:1025600067FAFFF779F904460D4622462B4611A17A
:1025700005A8FDF735FE01A90020FFF747FA05A9D8
:102580000220FFF743FA0120FFF785FFFFF750FA1B
:102590000A48FFF78FFA0520FFF77DFFFFF748FA9B
:1025A00000BFACE754656D70657261747572653A11
:1025B00020000000252E336600000000642B000878
:1025C00010B500290AD00878002807D005487844BB
:1025D000FEF732FA002801D0002010BD02487844EE
:1025E00010BD00006E1100006611000010B591EAE8
:1025F000030F48BF83F0004300F1D081841A71EBD0
:10260000030C05D2121943EB0C03001B61EB0C0108
:10261000DFF824E14FEA1154A4EB135C1EEA430FE8
:1026200018BF9EEA445F73D023EA0E03DCF1200E4C
:1026300021EA045143F4801332D322FA0CFE10EB4A
:102640000E0023FA0CFE41EB0E01CCF1200E03FA32
:102650000EFE10EB0E0051F10001B1F5801FCCF120
:10266000200E32D201EB045112FA0EF2BDE81040F6
:1026700058BF7047401C38BF5FEA420218BF70471E
:10268000002814BF20F0010041F100014FEA41038E
:1026900013F5001F38BF7047A1F1C04100F070B9B9
:1026A000012A43EB0302ACF1200CDCF11F0E32BF18
:1026B0004FF0000E23FA0CF310EB030041EB045132
:1026C000B4EB115FD0D0A1EB045101F580114908A2
:1026D0005FEA300001EB04510ED350F1000038BF27
:1026E00012FA0EFE08D1BDE81040C9E7401C38BF01
:1026F0005FEA4202CAD1C3E7BDE810404FEA410396
:1027000013F5001F38BF7047A1F1C04100F038B980
:102710009EEA445F08D011EA5E0FBDE8104004BF96
:1027200001F0004100207047BDE8104070B500F096
:10273000D9F800BF64FBBE3E0000E0FF10F000428D
:1027400048BF4042B0FA80F310FA03F10AD0C3F157
:102750001D0303F580634FEA415002EB035202EB85
:10276000D12170474FF000007047B0FA80F310FAA3
:1027700003F10AD0C3F11D0303F580634FEA415012
:102780004FEA035202EBD12170474FF0000070472F
:10279000DFF848C170B51CEA111E1EBF1CEA1315F4
:1027A0009EEA0C0F95EA0C0F00F06F8081EA03049B
:1027B00023EA4C134EEAD47E21EA4C1141F48011F5
:1027C00043F48013AE44A1FB024CA0FB0365AEF1C1
:1027D0007F7E361955EB0C05A1FB034C4CF1000331
:1027E000A0FB021C16EB0C06654153F100030942E5
:1027F00018BF46F0010613F4007F0BD14FEA0331F6
:102800004FEA0530340341EA155140EA16506FF0A3
:1028100003020AE04FEAC3214FEAC520F40241EA6D
:10282000555140EA56506FF0020202EB2E4201EB86
:10283000025585EACE710AD05FEA440C18BF24F035
:10284000004450F1000041F1000120EAD47040F250
:10285000FE7C624500D270BDA84214BF4FF0804498
:102860004FF04044002E08BF0024BEF1806FA8BF87
:10287000A1F1C041BDE8704080F282804FF00000BD
:1028800001F1C04101F0004170479EEA0C0F0CEAD3
:10289000131518BF95EA0C0F06D04FF0000081EA1F
:1028A000030E0EF0004170BD00F01CF88900013EDF
:1028B00000F007B800F009B84FEA430C5FEA5C5C2F
:1028C00008D081EA030100F05BB84FEA410C5FEAEF
:1028D0005C5CF6D14FF00000014970470000FF0733
:1028E0000000F87F0EF1020E2EF0030E5EF8046B6E
:1028F000364205D4012A43EB030515F5001F12D813
:10290000012841EB010C1CF5001F0CD80ED14FEA39
:10291000D17C15F5001F0CEB4C0C0CF1020C08BF20
:102920004CEBD37C04E04FF0080C01E04FEAD37C81
:102930000CEB4C0526FA05F606F00706B6F1040C7A
:1029400006D20EEB860CBDE870404CF0010C6047DF
:10295000DFE80CF0090B02024FF000414FF00000DD
:10296000A1F5002170BD19461046012851EB010464
:1029700018BFD4F5001484BF002001F0004170BDE1
:102980000808A0F500114FEA3101704710B591EA2F
:10299000030F48BF83F000433FF530AE841A71EB5C
:1029A000030C07D212198CF0004C43EB0C03001BF4
:1029B00061EB0C01DFF8A4E14FEA1154A4EB135CC6
:1029C0001EEA430F18BF9EEA445F00F0B08023EA7E
:1029D0006E03524221EA0451C3EB6E0338BF5B1E03
:1029E000DCF1200E25D322FA0CFE10EB0E0043FA88
:1029F0000CFE41EB0E01CCF1200E03FA0EFE10EBA3
:102A00000E0051F10001CCF1200E29D412FA0EF281
:102A100001EB0451BDE8104058BF7047401C1CBF7B
:102A2000B2F1004F704700280CBF491C20F0010094
:102A3000704712EB020E43EB030218BF4FF0010E7A
:102A40004EEA4202ACF1200CDCF11E0E54D943FADE
:102A50000CFE10EB0E0051F1FF31CCF11E0ED5D55E
:102A60000EF1010E12FA0EFE404141EB010101EBA5
:102A7000445C5FEA5C5C10D910EBDE7001EB045142
:102A800038BFBEF1004FBDE8104018BF70470028A6
:102A90000CBF491C20F00100704730D24FEAD42C03
:102AA00011F5001124F400641BD0B1FA81F20B3A45
:102AB000A41AA41ED2F12003914030FA03F3194363
:102AC000904001EBCC71002C01EB0451BDE81040AB
:102AD000A8BF704701F1C0414FF0000001F0004174
:102AE0007047B0FA80F310FA03F100D110BDE41A78
:102AF000173C4805C90AE4E701EB045110BD491031
:102B000001EB0451BDE810404FEA300002E04FF005
:102B1000000170474A0008BF0042F8D0B2F5001F1C
:102B200028BF704701F000414FF0000070479EEA57
:102B3000445F07D011EA5E0FBDE8104004BF0021DA
:102B400000207047BDE8104070B5FFF7CBFE00BF16
:102B500040DFF63E83F00041104670470000E0FF82
:102B6000FDF7E7BC000000000000000000000000CE
:102B7000FCFE0E1C181C0EFEFC007CFC80FCFC0005
:102B800000007CFEC6C6C60040E8A8F8F000F8F8D1
:102B900010180000C0C000C0C000C0C0000006097E
:102BA0001209060000000000000080400000000044
:102BB0000000000C12224422120C00000000000051
:102BC0000000000000000000000000000000000005
:102BD00000000000000000000000000000000000F5
:102BE00000000000000000000000000000000000E5
:102BF000814140804040800101000405050703C079
:102C0000204020C10101010000010101818081C13A
:102C1000C040C0C0E1E1E0E1E1E0E1E1E0E0E0602E
:102C2000604040C0E0E0A0908C0201000000000085
:102C300010285028100000000000000000000000D4
:102C40000000000000000000000000000000000084
:102C50000000000000000000000000000000000074
:102C60000000000000000000000000000000000064
:102C7000010204080402010000000000000000003E
:102C800001C2E1F03018083CF6FEFB1D0D02C2CB7C
:102C90000909090908080808080800C0FFFCFCF930
:102CA000E1C1111202C6C5C9D9F3E3C60E0C1C3826
:102CB00038F0E0C00000000000000C1224120C00EC
:102CC0000000000000000000000000000000000004
:102CD00000000000000000000000000000000000F4
:102CE00000000000000000000000000000000000E4
:102CF000804070F038180C0C0E0E0E868E0B0B0BED
:102D00000313313657E78707070707070303030352
:102D100003030303030303030303333B3333F303CB
:102D200003030303038383C36333919189080084FE
:102D3000848485870707061E3878E0C0800000007D
:102D40000000000000000000000000000000000083
:102D50000000000000000000000000000000000073
:102D60000000000000000000000000000078FCEF00
:102D7000FF7B1B08F0F8FCFEFFEF0F1F1F0FFFFF8C
:102D8000FEFCF9F2040003FE8000000000000000D9
:102D90000000000000000000000000000000FF0034
:102DA000000000009E7F73180EF3FFFFFFFFFF0F70
:102DB0001F1F0F7FFFFFFEFCFCF818FDFFFF7E1CAE
:102DC0000000000000000000000000000000000003
:102DD00000000000000000000000000000000000F3
:102DE00000000000000000000000000000000103DF
:102DF000272630303F3F3F3F3E26223939203C3E98
:102E00003F3F3F3F3E3838393938383A3A3A3A3A14
:102E10003A3A3A3A3A3A3A3B3B3B3B3B3B3B39380E
:102E200038393939393838383E3F3F3F3F3E3E31F7
:102E3000393930343E3F3F3F3F3B3A333331000076
:102E40000000000000000000000000000000000082
:102E50000000000000000000000000000000000072
:102E60000000000000000000000000000000000062
:102E70000000000000000000000000000000000052
:102E80000000000000000000000000000000000042
:102E90000000000000000000000000000000000032
:102EA0000000000000000000000000000000000022
:102EB0000000000000000000000000000000000012
:102EC0000000000000000000000000000000000002
:102ED00000000000000000000000000000000000F2
:102EE00000000000000000000000000000000000E2
:102EF00000000000000000000000000000000000D2
:102F000000000000000000000000000000000000C1
:102F100000000000000000000000000000000000B1
:102F200000000000000000000000000000000000A1
:102F30000000000000000000000000000000000091
:102F40000000000000000000000000000000000081
:102F50000000000000000000000000000000000071
:102F6000000000003F065B4F666D7D077F6F1F1CF2
:102F70001F1E1F1E1F1F1E1F1E1F0003030601040E
:102F8000060205000305000000000000000000002C
:102F9000000000000000000038FCFC3800000000C9
:102FA000000D0D000000000E1E00001E0E000000AF
:102FB00000000000000020F8F820F8F82000020FC0
:102FC0000F020F0F0200387C444747CC98000306DD
:102FD000041C1C07030030300080C06030000C0669
:102FE0000301000C0C0080D87CE4BCD84000070F23
:102FF0000808070F080000101E0E00000000000067
:103000000000000000000000F0F80C0400000000C8
:1030100003070C0800000000040CF8F0000000009A
:10302000080C0703000080A0E0C0C0E0A080000200
:10303000030101030200008080E0E08080000000C6
:10304000000303000000000000000000000000007A
:10305000101E0E00000080808080808080000000B4
:103060000000000000000000000000000000000060
:10307000000C0C00000000000080C06030000C0656
:10308000030100000000F8FC04C424FCF800070F52
:103090000908080F0700001018FCFC0000000008D9
:1030A000080F0F080800080C84C4643C18000E0FB9
:1030B0000908080C0C00080C444444FCB800040C3B
:1030C0000808080F0700C0E0B098FCFC8000000072
:1030D00000080F0F08007C7C4444C4C48400040C26
:1030E0000808080F0700F0F84C4444C08000070FA0
:1030F0000808080F07000C0C0484C47C3C00000086
:103100000F0F00000000B8FC444444FCB800070F57
:103110000808080F0700387C444444FCF800000805
:1031200008080C0703000000003030000000000019
:103130000006060000000000003030000000000023
:10314000080E060000000080C06030180800000073
:103150000103060C0800404040404040400002028D
:103160000202020202000008183060C0800000085D
:103170000C0603010000181C04C4E43C1800000005
:10318000000D0D000000F0F808C8C8F8F000070FA7
:10319000080B0B0B0100E0F0988C98F0E0000F0F8B
:1031A0000000000F0F0004FCFC4444FCB800080FB2
:1031B0000F08080F0700F0F80C04040C18000307B0
:1031C0000C08080C060004FCFC040CF8F000080FC6
:1031D0000F080C07030004FCFC44E40C1C00080F5F
:1031E0000F08080C0E0004FCFC44E40C1C00080F43
:1031F0000F0800000000F0F80C84848C980003078E
:103200000C0808070F00FCFC404040FCFC000F0FBE
:103210000000000F0F00000004FCFC040000000090
:10322000080F0F08000000000004FCFC0400070F5A
:1032300008080F07000004FCFCC0F03C0C00080F5D
:103240000F00010F0E0004FCFC0400000000080F3A
:103250000F08080C0E00FCFC387038FCFC000F0F47
:103260000000000F0F00FCFC3870E0FCFC000F0FAA
:103270000000000F0F00F0F80C040CF8F00003073A
:103280000C080C07030004FCFC44447C3800080FC5
:103290000F0800000000F8FC040404FCF800070F0D
:1032A000080E3C3F270004FCFC44C4FC3800080F17
:1032B0000F00000F0F00183C6444C49C1800060E59
:1032C0000808080F0700001C0CFCFC0C1C00000088
:1032D000080F0F080000FCFC000000FCFC00070FBA
:1032E0000808080F0700FCFC000000FCFC000103BC
:1032F000060C06030100FCFC008000FCFC00030F30
:103300000E030E0F03000C3CF0C0F03C0C000C0F41
:103310000300030F0C00003C7CC0C07C3C0000009C
:10332000080F0F0800001C0C84C4643C1C000E0F26
:103330000908080C0E000000FCFC0404000000005A
:103340000F0F080800003870E0C080000000000087
:10335000000103070E0000000404FCFC0000000054
:1033600008080F0F0000080C0603060C08000000F8
:10337000000000000000000000000000000020200D
:10338000202020202020000003070400000000006F
:1033900000000000000000A0A0A0E0C00000070F97
:1033A0000808070F080004FCFC2060C08000080F1C
:1033B0000708080F0700C0E0202020604000070F2A
:1033C0000808080C040080C06024FCFC0000070F03
:1033D0000808070F0800C0E0A0A0A0E0C000070F89
:1033E0000808080C040040F8FC440C180000080F02
:1033F0000F0800000000C0E02020C0E02000276F80
:1034000048487F3F000004FCFC4020E0C000080F5B
:103410000F00000F0F00000020ECEC000000000087
:10342000080F0F0800000000000020ECEC00003046
:103430007040407F3F0004FCFC80C0602000080F0B
:103440000F01030E0C00000004FCFC000000000053
:10345000080F0F080000E0E060C060E0C0000F0F40
:10346000000F000F0F0020E0C02020E0C000000F80
:103470000F00000F0F00C0E0202020E0C000070F69
:103480000808080F070020E0C02020E0C000407FAF
:103490007F48080F0700C0E02020C0E02000070F91
:1034A00008487F7F400020E0C0602060C000080F17
:1034B0000F080000000040E0A02020604000040C45
:1034C00009090B0E04002020F8FC20200000000059
:1034D000070F080C0400E0E00000E0E00000070F28
:1034E0000808070F080000E0E00000E0E00000032B
:1034F000070C0C070300E0E0000000E0E000070F0D
:103500000C070C0F07002060C080C0602000080C72
:103510000703070C0800E0E0000000E0E000474F70
:103520004848683F1F00606020A0E06020000C0E4B
:103530000B09080C0C00004040F8BC04040000001B
:1035400000070F080800000000BCBC0000000000DD
:10355000000F0F000000000404BCF8404000000809
:10356000080F07000000080C040C080C0400000001
:1035700000000000000080C0603060C080000707CD
:103580000404040707000434C404C43C20100FE8FA
:1035900008082818000010080601828C40300C032F
:1035A0000C1060C04000404244C800FC040282FC91
:1035B000040404FE04000040201F20474241407FD5
:1035C0004042446320004040424458C0407F40C0D5
:1035D0005048466440000080402018070000003F2B
:1035E00040404040700000FC00FF4020100C2B4881
:1035F000C808088C0800001F00FF00FF4141417F00
:10360000414141FF01001022640C8000FE92929221
:103610009292FF0200000404FE01407E42427E427C
:103620007E42427E40000000FC242424FCA5A6A487
:10363000FC243426040040209F804242262A122A7D
:10364000264240C0400000040414240404D4240290
:1036500022121B82000001212111090503FF03052D
:10366000090911311100201008FC575454FD56541B
:1036700054560400000004444427150D05FF050DB1
:10368000152565240400000002400000000000A091
:103690000000000005400000000000C8000000001D
:1036A0000C4000000000409C000000001940000099
:1036B0000020BCBE0000000034400000BFC91B8ECB
:1036C00000000004B5400000504BCFD06607E2CFA9
:1036D000010000006C4100003E8251AADFEEA734D9
:1036E00001000000D9420000DCB5A0E23A301F978B
:1036F000FFFFFFFFB4450000FD25A0C8E9A3C14FAF
:10370000FFFFFFFFFF3F00000000008000000000FF
:10371000FF3F000000000080000000005837000854
:103720000000002018000000280100087037000881
:103730001800002070060000440100081C00000072
:1037400043000000F8FFFFFF0C0000000E00000027
:103750000F0000002E000000000000000102030422
:10376000010203040607080902040608000000001D
:04000005080000ED02
:00000001FF
