:020000040800F2
:100000008806002089010008950700089D03000864
:1000100091070008430200083B110008000000009F
:10002000000000000000000000000000810D00083A
:10003000470200080000000097070008950E00081E
:10004000A3010008A3010008A3010008750C000823
:10005000A3010008A3010008A3010008A3010008F0
:10006000A3010008A3010008A3010008A3010008E0
:10007000A3010008A3010008A3010008A3010008D0
:10008000A3010008A3010008A3010008A3010008C0
:10009000A3010008A3010008A3010008A3010008B0
:1000A000A3010008A3010008A3010008A3010008A0
:1000B000A3010008A3010008A3010008A301000890
:1000C000A3010008A3010008A3010008A301000880
:1000D000A3010008A3010008A3010008A301000870
:1000E000A3010008A3010008A301000800F002F822
:1000F00000F03AF80AA090E8000C82448344AAF188
:100100000107DA4501D100F02FF8AFF2090EBAE885
:100110000F0013F0010F18BFFB1A43F0010318473B
:10012000AC180000CC180000103A24BF78C878C181
:10013000FAD8520724BF30C830C144BF04680C60ED
:10014000704700000023002400250026103A28BF35
:1001500078C1FBD8520728BF30C148BF0B60704739
:100160001FB51FBD10B510BD00F031F81146FFF7E7
:10017000F7FF01F013F800F04FF803B4FFF7F2FFB8
:1001800003BC00F057F800000948804709480047C1
:10019000FEE7FEE7FEE7FEE7FEE7FEE7FEE7FEE737
:1001A000FEE7FEE704480549054A064B7047000094
:1001B000990E0008ED000008880000208806002045
:1001C00088020020880200207047704770477546FB
:1001D00000F02CF8AE4605006946534620F00700B3
:1001E000854618B020B5FFF7DDFFBDE820404FF091
:1001F00000064FF000074FF000084FF0000B21F011
:100200000701AC46ACE8C009ACE8C009ACE8C009DD
:10021000ACE8C0098D46704710B50446AFF30080C6
:100220002046BDE81040FFF7A8BF00000048704717
:100230002400002001491820ABBEFEE72600020082
:10024000704700BFFEE770470549096821F01001BB
:10025000034A1160114609680143116070470000AC
:100260000020024001460020034A106800F03800D8
:100270000843106070470000002002402DE9F04163
:10028000024600250026002000230024002791F8C4
:1002900003C00CF00F0591F803C00CF0100CBCF17A
:1002A000000F03D091F802C04CEA050591F800C098
:1002B000BCF1000F31D0146800202BE04FF0010C8E
:1002C0000CFA00F3B1F800C00CEA03069E4220D1FC
:1002D00083004FF00F0C0CFA03F7BC4305FA03FC44
:1002E0004CEA040491F803C0BCF1280F06D14FF08A
:1002F000010C0CFA00FCC2F814C00AE091F803C02B
:10030000BCF1480F05D14FF0010C0CFA00FCC2F80B
:1003100010C0401C0828D1D31460B1F800C0BCF153
:10032000FF0F34DD546800202EE000F1080C4FF080
:10033000010808FA0CF3B1F800C00CEA03069E426B
:1003400021D183004FF00F0C0CFA03F7BC4305FAE0
:1003500003FC4CEA040491F803C0BCF1280F05D15A
:1003600000F1080C08FA0CF8C2F8148091F803C0E8
:10037000BCF1480F07D100F1080C4FF0010808FA52
:100380000CF8C2F81080401C0828CED35460BDE899
:10039000F0810AB1016100E04161704700BFFEE7F2
:1003A00000B585B00121082000F006FA01214805BA
:1003B00000F0F2F9C020ADF8100003208DF8120013
:1003C0001C208DF8130004A90F48FFF757FF0F48B2
:1003D00000900020ADF804004BF6FF70ADF8060069
:1003E000C020ADF808004FF48040ADF80C000011BB
:1003F000ADF80A006946064800F0ECF8012104480F
:1004000000F0A7F805B000BD000C0140A086010077
:10041000005400402DE9F0410546884614461E462A
:1004200000BF4FF40031364800F0B7F80028F8D18B
:100430000121334800F099F800BF3249304800F0FC
:1004400073F80028F9D0002229462D4800F03CF925
:1004500000BF2D492A4800F067F80028F9D041462E
:10046000274800F03AF900BF2749891C244800F0CA
:100470005BF80028F8D00121214800F076F800BF91
:1004800020491F4800F050F80028F9D001222946E1
:100490001B4800F019F900BF1A49491C184800F020
:1004A00043F80028F8D0002711E00121144800F09B
:1004B0002FF800BF1549124800F06FF80028F9D056
:1004C0000F4800F0FDF82070641C781C87B2701E85
:1004D000B842EADC00210A4800F01AF800BF0B49D4
:1004E000074800F05AF80028F9D0054800F0E8F86D
:1004F00020700121024800F044F8BDE8F0810000BE
:10050000005400400100030082000700400000107A
:1005100021B1028842F48062028004E002884FF632
:10052000FF331A400280704770B502460024002550
:1005300000230020958A138B1B0445EA030626F04E
:100540007F4404EA01068E4201D1012000E0002030
:1005500070BD21B1028842F00102028004E00288ED
:100560004FF6FE731A400280704721B1028842F4B0
:100570008072028004E002884FF6FF631A40028016
:10058000704721B1028842F40072028004E00288C0
:100590004FF6FF531A40028070470CB50246002008
:1005A00000230193009300920B0F019321F07F41F0
:1005B000019B1BB1009B1433009303E0090C009BCB
:1005C00018330093009B1B680B400BB1012000E027
:1005D00000200CBD2DE9F04385B004460D460026F1
:1005E000B1460427DFF8CC80A6884FF6C0700640DD
:1005F000684600F049F9DDF808802F48B8FBF0F0B4
:100600001FFA80F946EA0906A68020884FF6FE7197
:100610000840208000262949286888420CD828688C
:100620004000B8FBF0F087B2042F00DA04273E4305
:1006300009F10100208427E0E8884BF6FF71884229
:1006400006D1286800EB4000B8FBF0F087B209E063
:10065000286800EBC00101EB0010B8FBF0F087B296
:1006600047F48047C7F30B0008B947F0010747F488
:10067000004006434FF4967009FB00F04FF47A7186
:1006800090FBF1F0401C2084A683208840F00100FC
:10069000208026884FF6F5300640A88869890843EF
:1006A00006432680A88929890843208105B0BDE832
:1006B000F083000000127A0040420F00A086010083
:1006C0000146088AC0B2704712B141F0010102E050
:1006D0004FF6FE7319400182704701827047014650
:1006E000CA1701EB92729210A1EB820292B96420B8
:1006F00091FBF0F200FB121050B94FF4C87091FB5F
:10070000F0F200FB121008B9012070470020FCE74E
:100710000120FAE70020F8E72DE9F04786B0022330
:1007200004AA00219E20FFF775FE9DF810A000246A
:10073000154D0AF0800040B1144D6FEA0A0000F038
:10074000FF0A0AF1010000F0FF0A9DF8111048119C
:1007500000F0DBFE00224FF07F53CDE9000100F0F6
:100760003BFF06460F46504600F0E6FE8046324606
:100770003B4600F0E7FD22462B46CDE9020100F0A2
:100780002BFF06B0BDE8F0870000F03F0000F0BF8F
:1007900000BFFEE77047704729B1064AD26902439D
:1007A000044BDA6104E0034AD2698243014BDA6107
:1007B000704700000010024029B1064A92690243C6
:1007C000044B9A6104E0034A92698243014B9A61A7
:1007D000704700000010024010B500F02FF84FF4F1
:1007E000803000F0EDF800F049F90446012C24D1E6
:1007F0004FF4E011000400F027F9002000F0D4F8D5
:10080000A00200F003F9002000F00CF90220FFF72D
:1008100029FD1020FFF718FD012000F00FF900BF9F
:10082000392000F09BF80028FAD0022000F01AF9D5
:1008300000BF00F0B1F80828FBD110BD0F480068D8
:1008400040F001000D490860084640680C49084026
:100850000A494860084600680A4908400749086094
:100860000846006820F4802008600846406820F4AC
:10087000FE0048604FF41F0088607047001002407F
:100880000000FFF8FFFFF6FE30B500210022002433
:1008900000232D4D6D6805F00C0121B1042905D010
:1008A000082923D105E0294D056022E0274D056088
:1008B0001FE0254D6D6805F47012234D6D6805F439
:1008C0008034022505EB92421CB9214D5543056049
:1008D0000BE01D4D6D6805F400351DB11C4D5543F1
:1008E000056002E0194D5543056002E0174D0560B3
:1008F00000BF00BF144D6D6805F0F0010909154DEA
:100900006B5C0568DD4045600F4D6D6805F4E06186
:10091000090A104D6B5C4568DD4085600A4D6D68C5
:1009200005F46051C90A0B4D6B5C4568DD40C5603C
:10093000054D6D6805F44041890B074D6B5CC5683A
:10094000B5FBF3F5056130BD0010024000127A00DE
:1009500000093D00000000201000002010B50146F5
:100960000022002300204A11012A02D1094C2368E9
:1009700006E0022A02D1074C236A01E0054C636AB3
:1009800001F01F02012494401C400CB1012000E042
:10099000002010BD001002400248406800F00C002A
:1009A000704700000010024001460020034A5068D2
:1009B00020F0F00008435060704700000010024033
:1009C0001149096821F480310F4A11601146096804
:1009D00021F480211160B0F5803F03D0B0F5802F65
:1009E0000ED106E00849096841F48031064A1160D9
:1009F00007E00549096841F4A021034A116000E0BD
:100A000000BF00BF704700000010024001460020F8
:100A1000034A506820F4E0600843506070470000CB
:100A20000010024001460020034A506820F4605044
:100A300040EAC1005060704700100240014908665A
:100A4000704700000000424202460020044B5868F4
:100A500020F47C1042EA01031843014B58607047B0
:100A60000010024001460020034A506820F00300B5
:100A700008435060704700000010024038B5002065
:100A800000900024002500BF3120FFF767FF0546D6
:100A90000098401C00900098B0F5A06F01D0002D88
:100AA000F2D03120FFF75AFF08B1012400E0002402
:100AB000204638BD024909888143014A11807047A8
:100AC0000428004070B500260024002500F07AF8C4
:100AD00006463848B6FBF0F437480088A0423CD0C0
:100AE00035490C8040F2B27510E02846FFF7F7FD5B
:100AF00040B1B4F5B77F02D3A4F5B77404E0681C25
:100B000085B206E0A4F26D14681C85B2B4F5B67F18
:100B1000EBD800BF29488580002516E02749888842
:100B2000FFF7DDFD30B1012D04D11D2C01D31D3C9B
:100B300009E00CE02248405DA04203D82048405D17
:100B4000241A00E003E0681C85B21C2CE6D200BF2A
:100B5000681C1A498871601CC8711648B6FBF0F110
:100B600000FB11644FF46160B4FBF0F013490870AE
:100B70004FF46160B4FBF0F100FB11403C21B0FB8D
:100B8000F1F00E4948704FF46160B4FBF0F100FBE6
:100B900011403C21B0FBF1F201FB120007498870C3
:100BA0000B46DA799979988800F028F80349087299
:100BB000002070BD805101001400002018000020AA
:100BC000B2190008002103480188001F008841EA8B
:100BD000004070471C28004001460020064A128849
:100BE0000A40D0B2044A121F12880A4012B108B15A
:100BF000012000E00020704704280040F0B50346C3
:100C00000C461546642093FBF0F0C6B2642093FBBB
:100C1000F0F700FB1730C1B2132E02DD01F16400C2
:100C2000C1B20846CF1701EB977701EBA707BAB21D
:100C3000072092FBF0F700FB172082B25719601EC5
:100C4000DFF82CC01CF80000384482B2CF1701EB4B
:100C50009777BF10A1EB87071FB9032C01DA501E4D
:100C600082B2072092FBF0F700FB1720C0B2F0BD64
:100C7000BE19000810B50120FFF7AEFF002859D0BB
:100C8000FFF720FF2E4800780A2190FBF1F0C4B254
:100C9000052300222146C02000F064F9284800788E
:100CA0000A2190FBF1F201FB1200C4B205230022DD
:100CB0002146C12000F056F905224021C22000F053
:100CC000CCF91F4840780A2190FBF1F0C4B205230B
:100CD00000222146C32000F045F9194840780A2136
:100CE00090FBF1F201FB1200C4B205230022214661
:100CF000C42000F037F905224021C52000F0ADF9ED
:100D00000F4880780A2190FBF1F0C4B2052300223D
:100D10002146C62000F026F9094880780A2190FB78
:100D2000F1F201FB1200C4B2052300222146C720C4
:100D300000F018F90520FFF7BDFE00F003F810BD24
:100D40001800002000BF0348008800F020000028A1
:100D5000F9D070470428004010B500224FF48051AC
:100D60000148FFF716FB10BD0008014010B5002236
:100D70004FF400610148FFF70CFB10BD0008014073
:100D8000704710B500F002F810BD00000CB500204F
:100D9000019000903348006840F480303149086089
:100DA00000BF3048006800F4003000900198401CFB
:100DB0000190009818B90198B0F5A06FF1D12948B9
:100DC000006800F4003010B10120009001E0002024
:100DD00000900098012843D12348006840F010009B
:100DE000214908600846006820F0030008600846B2
:100DF000006840F0020008601A48406819494860DD
:100E00000846406848600846406840F48060486092
:100E10000846406820F47C1048600846406840F46A
:100E2000E81048600846006840F08070086000BF25
:100E30000C48006800F000700028F9D009484068AC
:100E400020F00300074948600846406840F002006F
:100E5000486000BF0348406800F00C000828F9D142
:100E60000CBD0000001002400020024010B501221D
:100E700011030248FFF78DFA10BD00000008014081
:100E800010B50122D1020248FFF783FA10BD00001D
:100E9000000801407047000010B51348006840F09A
:100EA00001001149086008464068104908400E4991
:100EB0004860084600680E4908400B49086008462B
:100EC000006820F4802008600846406820F4FE0096
:100ED00048604FF41F008860FFF753FF4FF0006039
:100EE0000449086010BD0000001002400000FFF837
:100EF000FFFFF6FE08ED00E02DE9F04180460C46CC
:100F000015461E4600F0DEF8402000F0F3F800F031
:100F100096F80A2000F02BF900F0D4F8404600F0D3
:100F2000E9F8002705E0207800F0E4F8641C781C5C
:100F3000C7B2AF42F7DB00F082F80A2000F017F9E1
:100F4000304600F06CF8BDE8F0811FB5002000903D
:100F5000019002900390002310226946C020FFF701
:100F6000CBFF1FBD2DE9F04180460C4615461E46BD
:100F700000270A2C24D2DFE804F005080B0E111418
:100F8000171A1D20204807781CE01F48477819E0F1
:100F90001D48877816E01C48C77813E01A4807797F
:100FA00010E0194847790DE0174887790AE016489C
:100FB000C77907E01448077A04E01348477A01E04C
:100FC000002700BF00BF012D02D107F18000C7B28A
:100FD00000F078F8442000F08DF800F030F80A2096
:100FE00000F0C5F800F06EF8404600F083F838468F
:100FF00000F080F800F023F80A2000F0B8F830463E
:1010000000F00DF8BDE8F081A819000810B500F057
:1010100059F8802000F06EF800F011F810BD10B5FE
:101020000446072C00DD072404F18800C4B200F058
:1010300049F8204600F05EF800F001F810BD10B548
:10104000FFF78AFE0A2000F092F8FFF719FF0A2046
:1010500000F08DF8FFF70AFF10BD70B506460C468C
:10106000154600F02FF8442000F044F8FFF7E7FFA2
:101070000A2000F07CF800F025F8304600F03AF83D
:10108000204600F037F8FFF7DAFF0A2000F06FF88B
:101090002846FFF7C4FF70BD08B501210420FFF703
:1010A0008BFB10208DF8030003208DF80200C00296
:1010B000ADF8000069460248FFF7E0F808BD0000FF
:1010C0000008014010B50A2000F051F8FFF7CEFEED
:1010D000FFF7D6FE0A2000F04AF8FFF7C7FE01200E
:1010E00000F045F8FFF738FE012000F040F8FFF768
:1010F0003DFE10BD70B50446002519E0FFF736FE31
:1011000004F0010010B1FFF7B1FE01E0FFF724FE8B
:10111000012000F02CF8FFF7B3FE0A2000F027F8BA
:10112000FFF724FE012000F022F86410681CC5B20D
:10113000082DE3DBFFF710FE70BD00BFFEE700B532
:10114000034603E04FF47A7000F011F8181EA3F183
:101150000103F7D100BD10B5044603E04FF47A70E7
:10116000FFF7EDFF201EA4F10104F7D110BD00EB45
:10117000C001C9004FF0E0225161002191610521B9
:10118000116100BF4FF0E021096901F480310029AD
:10119000F8D004214FF0E022116170470EB5FFF73F
:1011A0001BFBFFF779FFFFF7D0FEFFF72FFFFFF7DD
:1011B000F7F8BFE0FFF7B0FA05460E46C02400225C
:1011C00013462846314600F0CBF906D2052202210B
:1011D000C020FFF742FF601CC4B22846314600F031
:1011E00065F9B0F1000B01DB584601E0CBF10000DE
:1011F00087B20A2097FBF0F100FB117000F0FF0AA4
:101200000A2097FBF0F00A2190FBF1F201FB12009B
:1012100000F0FF08642097FBF0F090FBF1F201FB77
:10122000120000F0FF09B9F1000F18D005230022C9
:1012300049462046FFF796FE601CC4B205230022F3
:1012400041462046FFF78EFE601CC4B205230122F2
:1012500051462046FFF786FE601CC4B21BE0B8F181
:10126000000F10D00523002241462046FFF77AFEEA
:10127000601CC4B20523012251462046FFF772FECE
:10128000601CC4B207E00523012251462046FFF747
:1012900069FE601CC4B20022274B2846314600F08C
:1012A0009BF9CDE9000100F001F90A2190FBF1F270
:1012B00001FB1200C0B202900523002220460299D1
:1012C000FFF750FE601CC4B200221C4B284631467A
:1012D00000F082F9CDE9000100F0E8F80A2190FB66
:1012E000F1F201FB1200C0B2029005230022204659
:1012F0000299FFF737FE601CC4B20022104B28464B
:10130000314600F069F9CDE9000100F0CFF80A217B
:1013100090FBF1F201FB1200C0B202900523002203
:1013200020460299FFF71EFE601CC4B20120FFF7A1
:1013300012FF00BF3EE700000000244000005940BB
:1013400000408F4010B591EA030F48BF83F000437F
:1013500000F14882841A71EB030C05D2121943EB99
:101360000C03001B61EB0C01DFF824E14FEA115480
:10137000A4EB135C1EEA430F18BF9EEA445F73D0D0
:1013800023EA0E03DCF1200E21EA045143F480131A
:1013900032D322FA0CFE10EB0E0023FA0CFE41EBC6
:1013A0000E01CCF1200E03FA0EFE10EB0E0051F1EF
:1013B0000001B1F5801FCCF1200E32D201EB0451B7
:1013C00012FA0EF2BDE8104058BF7047401C38BFFB
:1013D0005FEA420218BF7047002814BF20F00100E6
:1013E00041F100014FEA410313F5001F38BF704778
:1013F000A1F1C04100F0E8B9012A43EB0302ACF1CE
:10140000200CDCF11F0E32BF4FF0000E23FA0CF35C
:1014100010EB030041EB0451B4EB115FD0D0A1EB12
:10142000045101F5801149085FEA300001EB0451D5
:101430000ED350F1000038BF12FA0EFE08D1BDE8FD
:101440001040C9E7401C38BF5FEA4202CAD1C3E777
:10145000BDE810404FEA410313F5001F38BF704745
:10146000A1F1C04100F0B0B99EEA445F08D011EA92
:101470005E0FBDE8104004BF01F00041002070473E
:10148000BDE8104070B500F051F900BF64FBBE3EEE
:101490000000E0FF491058BFC1F140415B1058BF48
:1014A000C3F140438B42EFF3008070474FEA4103A2
:1014B0004FEA5353A3F58063D3F11E03C8BFD3F1A2
:1014C000210C0CDD4FF0004242EAC12242EA5052A8
:1014D00032FA03FC8CEAE17CACEBE1707047102B34
:1014E000C4BF0020704703F5787CBCF1FF3F04D0F7
:1014F0006FF0004282EA2100704770B500F016F9E3
:101500004992248000207047F2E710F0004248BF63
:101510004042B0FA80F310FA03F10AD0C3F11D0380
:1015200003F580634FEA415002EB035202EBD121F5
:1015300070474FF000007047B0FA80F310FA03F1E3
:101540000AD0C3F11D0303F580634FEA41504FEA0F
:10155000035202EBD12170474FF0000070470000AA
:1015600051EA030C17D41CF5801F58BFBCF5801F2F
:1015700000F10680994218BF704708BF904270473B
:1015800007D711F5801F58BF13F5801F19D4994252
:101590007047894270471CF5801F08D5BCF5801F35
:1015A000F7D58B4218BF704708BF824270474FF48F
:1015B000001C1CEB410F38BF1CEB430F01D28B42C8
:1015C000704770B500F0B2F8922449004FF0005116
:1015D0004FF08053FFF75EBFDFF848C170B51CEADB
:1015E000111E1EBF1CEA13159EEA0C0F95EA0C0F84
:1015F00000F06F8081EA030423EA4C134EEAD47EA4
:1016000021EA4C1141F4801143F48013AE44A1FB54
:10161000024CA0FB0365AEF17F7E361955EB0C053D
:10162000A1FB034C4CF10003A0FB021C16EB0C06C3
:10163000654153F10003094218BF46F0010613F457
:10164000007F0BD14FEA03314FEA0530340341EA02
:10165000155140EA16506FF003020AE04FEAC32129
:101660004FEAC520F40241EA555140EA56506FF066
:10167000020202EB2E4201EB025585EACE710AD03E
:101680005FEA440C18BF24F0004450F1000041F11F
:10169000000120EAD47040F2FE7C624500D270BDA9
:1016A000A84214BF4FF080444FF04044002E08BFC2
:1016B0000024BEF1806FA8BFA1F1C041BDE8704019
:1016C00080F282804FF0000001F1C04101F0004142
:1016D00070479EEA0C0F0CEA131518BF95EA0C0F21
:1016E00006D04FF0000081EA030E0EF0004170BDFD
:1016F00000F01CF88900013E00F007B800F009B8BE
:101700004FEA430C5FEA5C5C08D081EA030100F019
:101710005BB84FEA410C5FEA5C5CF6D14FF0000029
:10172000014970470000FF070000F87F0EF1020E2C
:101730002EF0030E5EF8046B364205D4012A43EB0B
:10174000030515F5001F12D8012841EB010C1CF50B
:10175000001F0CD80ED14FEAD17C15F5001F0CEB01
:101760004C0C0CF1020C08BF4CEBD37C04E04FF0A6
:10177000080C01E04FEAD37C0CEB4C0526FA05F689
:1017800006F00706B6F1040C06D20EEB860CBDE897
:1017900070404CF0010C6047DFE80CF0090B0202CE
:1017A0004FF000414FF00000A1F5002170BD194637
:1017B0001046012851EB010418BFD4F5001484BF72
:1017C000002001F0004170BD0808A0F500114FEAAB
:1017D0003101704710B591EA030F48BF83F0004311
:1017E0003FF5B8AD841A71EB030C07D212198CF0D7
:1017F000004C43EB0C03001B61EB0C01DFF8A4E190
:101800004FEA1154A4EB135C1EEA430F18BF9EEA83
:10181000445F00F0B08023EA6E03524221EA045193
:10182000C3EB6E0338BF5B1EDCF1200E25D322FA1A
:101830000CFE10EB0E0043FA0CFE41EB0E01CCF156
:10184000200E03FA0EFE10EB0E0051F10001CCF158
:10185000200E29D412FA0EF201EB0451BDE810401B
:1018600058BF7047401C1CBFB2F1004F70470028A2
:101870000CBF491C20F00100704712EB020E43EB35
:10188000030218BF4FF0010E4EEA4202ACF1200CE9
:10189000DCF11E0E54D943FA0CFE10EB0E0051F190
:1018A000FF31CCF11E0ED5D50EF1010E12FA0EFE4F
:1018B000404141EB010101EB445C5FEA5C5C10D903
:1018C00010EBDE7001EB045138BFBEF1004FBDE8F4
:1018D000104018BF704700280CBF491C20F00100C1
:1018E000704730D24FEAD42C11F5001124F4006473
:1018F0001BD0B1FA81F20B3AA41AA41ED2F1200334
:10190000914030FA03F31943904001EBCC71002C65
:1019100001EB0451BDE81040A8BF704701F1C04180
:101920004FF0000001F000417047B0FA80F310FA68
:1019300003F100D110BDE41A173C4805C90AE4E7D9
:1019400001EB045110BD491001EB0451BDE81040FA
:101950004FEA300002E04FF0000170474A0008BF34
:101960000042F8D0B2F5001F28BF704701F00041D7
:101970004FF0000070479EEA445F07D011EA5E0F07
:10198000BDE8104004BF002100207047BDE81040B2
:1019900070B5FFF7CBFE00BF40DFF63E83F000419D
:1019A000104670470000E0FF3F065B4F666D7D0705
:1019B0007F6F1F1C1F1E1F1E1F1F1E1F1E1F0003C9
:1019C000030601040602050003050000EC190008E7
:1019D000000000201800000028010008041A000878
:1019E00018000020700600004401000800000000FC
:1019F00001020304010203040607080902040608A1
:041A000000000000E2
:04000005080000ED02
:00000001FF
