:020000040800F2
:1000000070060020890100081B040008D9030008BD
:10001000170400087D020008230F000800000000FC
:10002000000000000000000000000000690B000854
:100030008102000800000000AD0400087D0C0008EB
:10004000A3010008A3010008A3010008310900086A
:10005000A3010008A3010008A3010008A3010008F0
:10006000A3010008A3010008A3010008A3010008E0
:10007000A3010008A3010008A3010008A3010008D0
:10008000A3010008A3010008A3010008A3010008C0
:10009000A3010008A3010008A3010008A3010008B0
:1000A000A3010008A3010008A3010008A3010008A0
:1000B000A3010008A3010008A3010008A301000890
:1000C000A3010008A3010008A3010008A301000880
:1000D000A3010008A3010008A3010008A301000870
:1000E000A3010008A3010008A301000800F002F822
:1000F00000F03AF80AA090E8000C82448344AAF188
:100100000107DA4501D100F02FF8AFF2090EBAE885
:100110000F0013F0010F18BFFB1A43F0010318473B
:10012000880E0000A80E0000103A24BF78C878C1DD
:10013000FAD8520724BF30C830C144BF04680C60ED
:10014000704700000023002400250026103A28BF35
:1001500078C1FBD8520728BF30C148BF0B60704739
:100160001FB51FBD10B510BD00F031F81146FFF7E7
:10017000F7FF00F0FBFE00F04FF803B4FFF7F2FFCB
:1001800003BC00F057F800000948804709480047C1
:10019000FEE7FEE7FEE7FEE7FEE7FEE7FEE7FEE737
:1001A000FEE7FEE704480549054A064B7047000094
:1001B000810C0008ED00000870000020700600208F
:1001C000700200207002002070477047704775462B
:1001D00000F02CF8AE4605006946534620F00700B3
:1001E000854618B020B5FFF7DDFFBDE820404FF091
:1001F00000064FF000074FF000084FF0000B21F011
:100200000701AC46ACE8C009ACE8C009ACE8C009DD
:10021000ACE8C0098D46704710B50446AFF30080C6
:100220002046BDE81040FFF7A8BF00000048704717
:100230001000002001491820ABBEFEE72600020096
:100240007047000008B50146002000900348009068
:100250000098084400900098008808BD006C004099
:1002600008B500220092044A0092009A02440092CB
:10027000009A116008BD0000006C004000BFFEE75E
:10028000704700000549096821F01001034A116018
:1002900011460968014311607047000000200240C8
:1002A00001460020034A106800F03800084310603F
:1002B00070470000002002402DE9F0410246002571
:1002C0000026002000230024002791F803C00CF032
:1002D0000F0591F803C00CF0100CBCF1000F03D017
:1002E00091F802C04CEA050591F800C0BCF1000F7E
:1002F00031D0146800202BE04FF0010C0CFA00F311
:10030000B1F800C00CEA03069E4220D183004FF0F2
:100310000F0C0CFA03F7BC4305FA03FC4CEA040487
:1003200091F803C0BCF1280F06D14FF0010C0CFA74
:1003300000FCC2F814C00AE091F803C0BCF1480FF9
:1003400005D14FF0010C0CFA00FCC2F810C0401CA3
:100350000828D1D31460B1F800C0BCF1FF0F34DD20
:10036000546800202EE000F1080C4FF0010808FA54
:100370000CF3B1F800C00CEA03069E4221D18300C1
:100380004FF00F0C0CFA03F7BC4305FA03FC4CEAE0
:10039000040491F803C0BCF1280F05D100F1080C4A
:1003A00008FA0CF8C2F8148091F803C0BCF1480FA9
:1003B00007D100F1080C4FF0010808FA0CF8C2F858
:1003C0001080401C0828CED35460BDE8F0810AB1EB
:1003D000016100E04161704700BFFEE70146CA17B6
:1003E00001EB92729210A1EB820292B9642091FB10
:1003F000F0F200FB121050B94FF4C87091FBF0F20C
:1004000000FB121008B9012070470020FCE7012012
:10041000FAE70020F8E700BFFEE7704770B500215B
:1004200000230F22C47804B3154C246804F4E0645C
:10043000C4F5E064210AC1F10403CA40447804FA17
:1004400003F184781440214309010E4C0678A1552C
:10045000047804F01F050124AC4005786D11AD004F
:1004600005F1E025C5F8004109E0047804F01F0516
:100470000124AC40044D0678761145F8264070BD45
:100480000CED00E000E400E080E100E002490143FF
:10049000024A1160704700000000FA050CED00E010
:1004A000014908627047000000000E4270470000DA
:1004B00029B1064AD2690243044BDA6104E0034AD7
:1004C000D2698243014BDA6170470000001002409C
:1004D00029B1064A92690243044B9A6104E0034A37
:1004E00092698243014B9A617047000000100240FC
:1004F00010B500F02FF84FF4803000F083F800F0D2
:1005000007F90446012C24D14FF4E011000400F057
:10051000D7F8002000F06AF8A00200F0B3F800203D
:1005200000F0BCF80220FFF7BBFE1020FFF7AAFE88
:10053000012000F0BFF800BF392000F031F800289A
:10054000FAD0022000F0D8F800BF00F047F80828E1
:10055000FBD110BD0F48006840F001000D49086054
:10056000084640680C4908400A4948600846006847
:100570000A490840074908600846006820F48020BE
:1005800008600846406820F4FE0048604FF41F00F1
:1005900088607047001002400000FFF8FFFFF6FE81
:1005A00010B501460022002300204A11012A02D181
:1005B000094C236806E0022A02D1074C236A01E0B5
:1005C000054C636A01F01F02012494401C400CB1E9
:1005D000012000E0002010BD0010024002484068E9
:1005E00000F00C007047000000100240014600209F
:1005F000034A506820F0F000084350607047000044
:10060000001002401149096821F480310F4A11603D
:100610001146096821F480211160B0F5803F03D0B4
:10062000B0F5802F0ED106E00849096841F4803109
:10063000064A116007E00549096841F4A021034A10
:10064000116000E000BF00BF7047000000100240D2
:1006500000210B4A11700A4A203A82F82010012822
:1006600002D0042808D103E00121054A117004E0FA
:100670000521034A117000E000BF00BF7047000071
:100680002010024001460020034A506820F4E06038
:1006900008435060704700000010024001460020EF
:1006A000034A506820F4605040EAC100506070472F
:1006B00000100240014908667047000000004242F5
:1006C00002460020044B586820F47C1042EA0103E3
:1006D0001843014B58607047001002400149086000
:1006E000704700003C0442420249096A0143014A42
:1006F000116270470010024001460020034A506812
:1007000020F00300084350607047000000100240D2
:1007100038B5002000900024002500BF3120FFF7ED
:100720003FFF05460098401C00900098B0F5A06F70
:1007300001D0002DF2D03120FFF732FF08B10124A3
:1007400000E00024204638BD024909888143014A5F
:1007500011807047042800400348008840F01000D2
:1007600001490880704700000428004003480088C1
:100770004FF6EF7108400149088070470428004097
:1007800070B500260024002500F07AF806463848A7
:10079000B6FBF0F437480088A0423CD035490C80C5
:1007A00040F2B27510E02846FFF718FE40B1B4F5EC
:1007B000B77F02D3A4F5B77404E0681C85B206E0E5
:1007C000A4F26D14681C85B2B4F5B67FEBD800BFF7
:1007D00029488580002516E027498888FFF7FEFD17
:1007E00030B1012D04D11D2C01D31D3C09E00CE0DA
:1007F0002248405DA04203D82048405D241A00E012
:1008000003E0681C85B21C2CE6D200BF681C1A49A4
:100810008871601CC8711648B6FBF0F100FB1164CA
:100820004FF46160B4FBF0F0134908704FF461605D
:10083000B4FBF0F100FB11403C21B0FBF1F00E499C
:1008400048704FF46160B4FBF0F100FB11403C21B3
:10085000B0FBF1F201FB1200074988700B46DA7910
:100860009979988800F028F803490872002070BD33
:100870008051010000000020040000208E0F0008BD
:10088000002103480188001F008841EA00407047AA
:100890001C28004001460020064A12880A40D0B2B7
:1008A000044A121F12880A4012B108B1012000E068
:1008B0000020704704280040F0B503460C4615465A
:1008C000642093FBF0F0C6B2642093FBF0F700FBCA
:1008D0001730C1B2132E02DD01F16400C1B2084627
:1008E000CF1701EB977701EBA707BAB2072092FB6E
:1008F000F0F700FB172082B25719601EDFF82CC0FA
:100900001CF80000384482B2CF1701EB9777BF1074
:10091000A1EB87071FB9032C01DA501E82B2072012
:1009200092FBF0F700FB1720C0B2F0BD9A0F000851
:1009300010B50120FFF7AEFF002859D0FFF720FFC8
:100940002E4800780A2190FBF1F0C4B20523002262
:100950002146C02000F0FAF9284800780A2190FBCF
:10096000F1F201FB1200C4B2052300222146C1208E
:1009700000F0ECF905224021C22000F062FA1F4885
:1009800040780A2190FBF1F0C4B2052300222146F1
:10099000C32000F0DBF9194840780A2190FBF1F2FE
:1009A00001FB1200C4B2052300222146C42000F03E
:1009B000CDF905224021C52000F043FA0F48807888
:1009C0000A2190FBF1F0C4B2052300222146C62083
:1009D00000F0BCF9094880780A2190FBF1F201FB94
:1009E0001200C4B2052300222146C72000F0AEF950
:1009F0000520FFF7A9FE00F087F810BD04000020D5
:100A000029B1064A12880243044B1A8004E0034AC3
:100A100012888243014B1A80704700000028004072
:100A200038B5002401214FF0C050FFF741FD0120EF
:100A3000FFF736FD0420FFF705FC45F65A218842F2
:100A400035D0FFF787FD0120FFF702FE04E0601CB0
:100A5000C4B20A2000F067FA4120FFF7A1FD08B9EF
:100A6000FA2CF4DBFA2C01DB012038BD4FF4807046
:100A7000FFF73AFE0120FFF731FE00F045F800F0E5
:100A80004DF801210320FFF7BBFF00F03DF8FFF711
:100A900063FE47F6FF7000F027F800F035F8FFF727
:100AA00065FE45F65A210420FFF7DAFB07E000F067
:100AB00035F801210846FFF7A3FF00F025F84FF4B1
:100AC000A060FFF7E3FC03208DF8000000208DF804
:100AD00001008DF8020001208DF803006846FFF741
:100AE0009DFC0020C1E7000000B50246FFF734FE80
:100AF000C2F3034003490880091D0A80FFF736FE50
:100B000000BD00000828004000BF0348008800F036
:100B100020000028F9D070470428004007480088CA
:100B20004FF6F77108400549088000BF0348008868
:100B300000F008000028F9D07047000004280040A9
:100B400010B500224FF480510148FFF740FC10BD62
:100B50000008014010B500224FF400610148FFF782
:100B600036FC10BD00080140704710B500F002F8D7
:100B700010BD00000CB500200190009033480068C3
:100B800040F480303149086000BF3048006800F40C
:100B9000003000900198401C0190009818B901980D
:100BA000B0F5A06FF1D12948006800F4003010B111
:100BB0000120009001E0002000900098012843D11E
:100BC0002348006840F0100021490860084600688A
:100BD00020F0030008600846006840F0020008604A
:100BE0001A48406819494860084640684860084605
:100BF000406840F4806048600846406820F47C10FB
:100C000048600846406840F4E810486008460068BC
:100C100040F08070086000BF0C48006800F0007071
:100C20000028F9D00948406820F0030007494860CF
:100C30000846406840F00200486000BF0348406832
:100C400000F00C000828F9D10CBD00000010024093
:100C50000020024010B5012211030248FFF7B7FB44
:100C600010BD00000008014010B50122D102024869
:100C7000FFF7ADFB10BD0000000801407047000009
:100C800010B51348006840F001001149086008469B
:100C90004068104908400E494860084600680E49FF
:100CA00008400B4908600846006820F4802008606E
:100CB0000846406820F4FE0048604FF41F0088603A
:100CC000FFF753FF4FF000600449086010BD0000BB
:100CD000001002400000FFF8FFFFF6FE08ED00E004
:100CE0002DE9F04180460C4615461E4600F0DEF820
:100CF000402000F0F3F800F096F80A2000F01FF909
:100D000000F0D4F8404600F0E9F8002705E020782C
:100D100000F0E4F8641C781CC7B2AF42F7DB00F0C7
:100D200082F80A2000F00BF9304600F06CF8BDE8BC
:100D3000F0811FB5002000900190029003900023E5
:100D400010226946C020FFF7CBFF1FBD2DE9F041FF
:100D500080460C4615461E4600270A2C24D2DFE8A2
:100D600004F005080B0E1114171A1D2020480778EF
:100D70001CE01F48477819E01D48877816E01C489A
:100D8000C77813E01A48077910E0194847790DE051
:100D9000174887790AE01648C77907E01448077AA8
:100DA00004E01348477A01E0002700BF00BF012D8F
:100DB00002D107F18000C7B200F078F8442000F0BB
:100DC0008DF800F030F80A2000F0B9F800F06EF865
:100DD000404600F083F8384600F080F800F023F831
:100DE0000A2000F0ACF8304600F00DF8BDE8F081C4
:100DF000840F000810B500F059F8802000F06EF85C
:100E000000F011F810BD10B50446072C00DD0724D2
:100E100004F18800C4B200F049F8204600F05EF802
:100E200000F001F810BD10B5FFF78AFE0A2000F0AF
:100E300086F8FFF719FF0A2000F081F8FFF70AFF94
:100E400010BD70B506460C46154600F02FF844203C
:100E500000F044F8FFF7E7FF0A2000F070F800F018
:100E600025F8304600F03AF8204600F037F8FFF752
:100E7000DAFF0A2000F063F82846FFF7C4FF70BDD0
:100E800008B501210420FFF723FB48208DF803005B
:100E900003208DF80200C002ADF800006946024848
:100EA000FFF70AFA08BD00000008014010B50A204B
:100EB00000F045F8FFF7CEFEFFF7D6FE0A2000F05F
:100EC0003EF8FFF7C7FE012000F039F8FFF738FEC3
:100ED000012000F034F8FFF73DFE10BD70B5044668
:100EE000002519E0FFF736FE04F0010010B1FFF70E
:100EF000B1FE01E0FFF724FE012000F020F8FFF72B
:100F0000B3FE0A2000F01BF8FFF724FE012000F0DA
:100F100016F86410681CC5B2082DE3DBFFF710FE5D
:100F200070BD00BFFEE700B5034603E04FF47A70E2
:100F300000F005F8181EA3F10103F7D100BD00EB86
:100F4000C001C9004FF0E0225161002191610521EB
:100F5000116100BF4FF0E021096901F480310029DF
:100F6000F8D004214FF0E02211617047FFF7C0FA7A
:100F7000FFF786FFFFF7DDFEFFF73CFFFFF750FDB1
:100F800000BFFEE73F065B4F666D7D077F6F1F1C4E
:100F90001F1E1F1E1F1F1E1F1E1F0003030601040E
:100FA0000602050003050000C80F0008000000202D
:100FB0000400000028010008CC0F000804000020F5
:0C0FC0006C060000440100080000000066
:04000005080000ED02
:00000001FF
