:020000040800F2
:10000000500700209901000895090008FD08000824
:1000100091090008290600084315000800000000A7
:100020000000000000000000000000002511000892
:100030008D07000800000000290A000811120008BE
:10004000B3010008B3010008B3010008810F0008E4
:10005000B3010008B3010008B3010008B3010008B0
:10006000B3010008B3010008B3010008B3010008A0
:10007000B3010008B3010008B3010008B301000890
:10008000B3010008B3010008B3010008B301000880
:10009000B3010008B3010008B3010008B301000870
:1000A000B3010008B3010008B3010008B301000860
:1000B000B3010008B3010008B3010008B301000850
:1000C000B3010008B3010008B3010008B301000840
:1000D000B301000875120008B3010008B30100085D
:1000E000B3010008B3010008B301000800F002F8F2
:1000F00000F042F80AA090E8000C82448344AAF180
:100100000107DA4501D100F037F8AFF2090EBAE87D
:100110000F0013F0010F18BFFB1A43F0010318473B
:100120005C1C00007C1C0000103A24BF78C878C119
:10013000FAD8520724BF30C830C144BF04680C60ED
:10014000704700000023002400250026103A28BF35
:1001500078C1FBD8520728BF30C148BF0B60704739
:10016000642900F07180632900F0EE81002070475F
:100170001FB51FBD10B510BD00F008FA1146FFF7FE
:10018000F7FF01F01BFA00F026FA03B4FFF7F2FFC5
:1001900003BC01F0DFF90000094880470948004727
:1001A000FEE7FEE7FEE7FEE7FEE7FEE7FEE7FEE727
:1001B000FEE7FEE704480549054A064B7047000084
:1001C00015120008ED000008500100205007002023
:1001D0005003002050030020704700000FB4044972
:1001E00010B503AA029800F0BBF910BC5DF814FB2F
:1001F0001400002070B50C460546012A05D0287869
:10020000800600D5EA69002302E0012305E05B1CBB
:10021000934202D2E05C0028F9D1A869E618C01A1E
:10022000A861286A184428622846AFF3008004E0D9
:10023000D5E9012114F8010B9047B442F8D32846C0
:10024000AFF3008070BD00002DE9F04106460024A8
:1002500010687529314616A510D0AFF3008000282C
:1002600002DA404213A507E031688A0701D512A5DA
:1002700002E0490704D511A5012401E0AFF3008095
:1002800000210A2206F1240709E0B0FBF2FCB0FBD2
:10029000F2F302FB1C00303078541846491C002849
:1002A000F3D123462A463046BDE8F04100F0D0B8ED
:1002B000000000002D0000002B00000020000000C6
:1002C0002DE9F05F894604464FF0000ADFF874B16B
:1002D000FB44C0F820A02046E1688847002874D07D
:1002E000252806D0D4E901219047206A401C2062CD
:1002F000F1E700265F462046E1688847202805464A
:1003000007DB312D05D2781910F8200C08B106430F
:10031000F1E7B00701D526F00406C4F81CA00027B9
:10032000C4F818A02A2D09D0284601F00CF938B3DA
:1003300004EB8708303DC8F8185019E059F8041B41
:10034000204604EB87029161E1688847012F05464A
:1003500018D1E069002820DA26F020061DE0D8F840
:10036000180000EB800005EB40003038C8F818009A
:100370002046E1688847054601F0E5F80028EED1FF
:10038000012F0AD02E2D08D12046E16888477F1C16
:100390000546022F46F02006C4DBA069002803DAD8
:1003A000404246F00106A061F00701D026F0100699
:1003B0006C2D0BD0682D09D04C2D39D06A2D35D03D
:1003C000742D35D07A2D33D016E038E0E1682F4611
:1003D00020468847B842054609D16C2F26D04FF4F5
:1003E0008060E168064320468847054604E06C2F9C
:1003F0001AD04FF4807006430DB3A5F141001928BF
:1004000002D8203546F400664A4629462046266032
:100410004E46FFF7A5FE80B101280BD0F61D26F051
:10042000070000F1080956E74020E4E78020D8E7FC
:100430000020D6E706F104094DE7284652E7206A76
:10044000BDE8F09F941A00007047704770477047EE
:100450002DE9F0470D4699469246044600F12408DE
:100460000168880604D5E06921F01001216000E0F0
:100470000120A84201DD471B00E00027A1697A198D
:1004800002EB0900081AA0612078C00602D42046B9
:10049000AFF30080002608E0D4E901211AF8060035
:1004A0009047206A401C761C20624E45F4DB207881
:1004B000C0060AD52046AFF3008006E0D4E901214A
:1004C00030209047206A401C2062381EA7F10107A7
:1004D000F4DC07E0D4E9012118F805009047206A10
:1004E000401C2062281EA5F10105F3DC2046AFF375
:1004F00000802078000602D50220BDE8F0870120A8
:10050000FBE7000001694A1C02610878704700B5EA
:100510008FB0CDE901310021059105497944CDE93C
:10052000031011466846FFF7CBFE0FB000BD000078
:10053000E5FFFFFF10B5436913B1AFF3008001E0A1
:10054000FFF758FE012010BD127800F124010A7057
:1005500000224A700122EDE711684FF0FF32E9E70F
:10056000074B70B50D467B44FFF7D1FF0446284684
:1005700000F008F810B14FF0FF3070BD204670BD9C
:1005800037100000007B00F080007047754600F0D7
:100590002BF8AE4605006946534620F00700854615
:1005A00018B020B5FFF706FEBDE820404FF000066A
:1005B0004FF000074FF000084FF0000B21F007014B
:1005C000AC46ACE8C009ACE8C009ACE8C009ACE88E
:1005D000C0098D46704710B50446AFF30080204631
:1005E000BDE81040FFF7D1BD00487047F000002083
:1005F00008B5014600200090034800900098084488
:1006000000900098008808BD006C004008B50022EA
:100610000092044A0092009A02440092009A1160EB
:1006200008BD0000006C004000BFFEE72DE9F04F60
:1006300087B082468B46584601F0E0F98046424634
:100640000B4600201D4901F081F8064600224FF0BC
:10065000804301F07BF80022194BCDE9000101F045
:10066000E1F90022164BCDE9020101F0DBF9044665
:1006700001F03AF80590059801F0D2FA04900FE0E5
:10068000002220210F4800F034F9049800F070FF98
:10069000012220210B4800F02CF9049800F068FF9B
:1006A000BAF10000AAF1010AEAD10122202105488D
:1006B00000F01FF907B0BDE8F08F00000000F03F28
:1006C00000408F40000C014008B50121082000F0D7
:1006D000BDF92020ADF8000003208DF802001020A5
:1006E0008DF803006946044800F06FF801222021CC
:1006F000014800F0FEF808BD000C01402DE9D04F84
:1007000086B082468B46584601F078F90646324656
:100710000B4600201A4901F019F800224FF08043DF
:10072000CDE9000101F012F80022164BCDE90201DB
:1007300001F078F9804600F0D7FF0490049801F0AA
:10074000D9FA04460FE0002220210F4800F0D1F82A
:10075000204600F00DFF012220210B4800F0C9F8CF
:10076000204600F005FFBAF10000AAF1010AEAD123
:1007700001222021044800F0BCF806B0BDE8D08F6B
:100780000000F03F00408F40000C01407047000027
:100790000549096821F01001034A116011460968F2
:1007A0000143116070470000002002400146002014
:1007B000034A106800F038000843106070470000DA
:1007C000002002400146088870472DE9F0410246AA
:1007D00000250026002000230024002791F803C0F4
:1007E0000CF00F0591F803C00CF0100CBCF1000FD9
:1007F00003D091F802C04CEA050591F800C0BCF1A5
:10080000000F31D0146800202BE04FF0010C0CFADF
:1008100000F3B1F800C00CEA03069E4220D1830029
:100820004FF00F0C0CFA03F7BC4305FA03FC4CEA3B
:10083000040491F803C0BCF1280F06D14FF0010C5D
:100840000CFA00FCC2F814C00AE091F803C0BCF135
:10085000480F05D14FF0010C0CFA00FCC2F810C093
:10086000401C0828D1D31460B1F800C0BCF1FF0FC0
:1008700034DD546800202EE000F1080C4FF0010830
:1008800008FA0CF3B1F800C00CEA03069E4221D12D
:1008900083004FF00F0C0CFA03F7BC4305FA03FC7E
:1008A0004CEA040491F803C0BCF1280F05D100F113
:1008B000080C08FA0CF8C2F8148091F803C0BCF1D7
:1008C000480F07D100F1080C4FF0010808FA0CF8A6
:1008D000C2F81080401C0828CED35460BDE8F081D7
:1008E0000246002093680B400BB1012000E000207D
:1008F00070470AB1016100E04161704700BFFEE747
:100900000146CA1701EB92729210A1EB820292B9D2
:10091000642091FBF0F200FB121050B94FF4C87044
:1009200091FBF0F200FB121008B901207047002083
:10093000FCE70120FAE70020F8E7000008B50121F4
:10094000042000F083F80320ADF8000048208DF863
:10095000030003208DF8020069460248FFF735FFC7
:1009600008BD00000008014008B50121082000F082
:100970006DF80320ADF800008DF8020010208DF80E
:10098000030069460148FFF720FF08BD000C014045
:1009900000BFFEE77047000070B5002100230F2262
:1009A000C47804B3154C246804F4E064C4F5E0642E
:1009B000210AC1F10403CA40447804FA03F184789F
:1009C0001440214309010E4C0678A155047804F027
:1009D0001F050124AC4005786D11AD0005F1E0253F
:1009E000C5F8004109E0047804F01F050124AC407B
:1009F000044D0678761145F8264070BD0CED00E0F8
:100A000000E400E080E100E002490143024A116095
:100A1000704700000000FA050CED00E00149086293
:100A20007047000000000E427047000029B1064ADE
:100A3000D2690243044BDA6104E0034AD26982437B
:100A4000014BDA61704700000010024029B1064AEC
:100A500092690243044B9A6104E0034A926982431B
:100A6000014B9A61704700000010024010B500F081
:100A70002FF84FF4803000F0EDF800F071F90446E3
:100A8000012C24D14FF4E011000400F041F90020C2
:100A900000F0D4F8A00200F01DF9002000F026F9C3
:100AA0000220FFF783FE1020FFF772FE012000F006
:100AB00029F900BF392000F09BF80028FAD0022065
:100AC00000F042F900BF00F0B1F80828FBD110BDDA
:100AD0000F48006840F001000D4908600846406872
:100AE0000C4908400A494860084600680A4908401D
:100AF000074908600846006820F48020086008461E
:100B0000406820F4FE0048604FF41F008860704782
:100B1000001002400000FFF8FFFFF6FE30B5002194
:100B20000022002400232D4D6D6805F00C0121B139
:100B3000042905D0082923D105E0294D056022E0CC
:100B4000274D05601FE0254D6D6805F47012234D9B
:100B50006D6805F48034022505EB92421CB9214DE5
:100B6000554305600BE01D4D6D6805F400351DB162
:100B70001C4D5543056002E0194D5543056002E0E8
:100B8000174D056000BF00BF144D6D6805F0F00102
:100B90000909154D6B5C0568DD4045600F4D6D68BA
:100BA00005F4E061090A104D6B5C4568DD40856025
:100BB0000A4D6D6805F46051C90A0B4D6B5C4568C0
:100BC000DD40C560054D6D6805F44041890B074D5A
:100BD0006B5CC568B5FBF3F5056130BD00100240E4
:100BE00000127A0000093D000000002010000020E3
:100BF00010B501460022002300204A11012A02D12B
:100C0000094C236806E0022A02D1074C236A01E05E
:100C1000054C636A01F01F02012494401C400CB192
:100C2000012000E0002010BD001002400248406892
:100C300000F00C0070470000001002400146002048
:100C4000034A506820F0F0000843506070470000ED
:100C5000001002401149096821F480310F4A1160E7
:100C60001146096821F480211160B0F5803F03D05E
:100C7000B0F5802F0ED106E00849096841F48031B3
:100C8000064A116007E00549096841F4A021034ABA
:100C9000116000E000BF00BF70470000001002407C
:100CA00000210B4A11700A4A203A82F820100128CC
:100CB00002D0042808D103E00121054A117004E0A4
:100CC0000521034A117000E000BF00BF704700001B
:100CD0002010024001460020034A506820F4E060E2
:100CE0000843506070470000001002400146002099
:100CF000034A506820F4605040EAC10050607047D9
:100D0000001002400149086670470000000042429E
:100D100002460020044B586820F47C1042EA01038C
:100D20001843014B586070470010024001490860A9
:100D3000704700003C0442420249096A0143014AEB
:100D4000116270470010024001460020034A5068BB
:100D500020F003000843506070470000001002407C
:100D600038B5002000900024002500BF3120FFF797
:100D70003FFF05460098401C00900098B0F5A06F1A
:100D800001D0002DF2D03120FFF732FF08B101244D
:100D900000E00024204638BD024909888143014A09
:100DA00011807047042800400348008840F010007C
:100DB000014908807047000004280040034800886B
:100DC0004FF6EF7108400149088070470428004041
:100DD00070B500260024002500F07AF80646384851
:100DE000B6FBF0F437480088A0423CD035490C806F
:100DF00040F2B27510E02846FFF782FD40B1B4F52D
:100E0000B77F02D3A4F5B77404E0681C85B206E08E
:100E1000A4F26D14681C85B2B4F5B67FEBD800BFA0
:100E200029488580002516E027498888FFF768FD56
:100E300030B1012D04D11D2C01D31D3C09E00CE083
:100E40002248405DA04203D82048405D241A00E0BB
:100E500003E0681C85B21C2CE6D200BF681C1A494E
:100E60008871601CC8711648B6FBF0F100FB116474
:100E70004FF46160B4FBF0F0134908704FF4616007
:100E8000B4FBF0F100FB11403C21B0FBF1F00E4946
:100E900048704FF46160B4FBF0F100FB11403C215D
:100EA000B0FBF1F201FB1200074988700B46DA79BA
:100EB0009979988800F028F803490872002070BDDD
:100EC000805101001A000020E4000020501D00089D
:100ED000002103480188001F008841EA0040704754
:100EE0001C28004001460020064A12880A40D0B261
:100EF000044A121F12880A4012B108B1012000E012
:100F00000020704704280040F0B503460C46154603
:100F1000642093FBF0F0C6B2642093FBF0F700FB73
:100F20001730C1B2132E02DD01F16400C1B20846D0
:100F3000CF1701EB977701EBA707BAB2072092FB17
:100F4000F0F700FB172082B25719601EDFF82CC0A3
:100F50001CF80000384482B2CF1701EB9777BF101E
:100F6000A1EB87071FB9032C01DA501E82B20720BC
:100F700092FBF0F700FB1720C0B2F0BD5C1D00082B
:100F80000EB50120FFF7AEFF88B1FFF721FF0B4838
:100F900080780A494978094A1278CDE900210290FF
:100FA0000648C3798279818805A0FFF717F90520E3
:100FB000FFF7F2FE00F09AF80EBD0000E4000020FA
:100FC00043757272656E742054696D653A25642D9F
:100FD00025642D25642025643A25643A25640D0A8C
:100FE0000000000029B1064A12880243044B1A800F
:100FF00004E0034A12888243014B1A8070470000C4
:101000000028004038B5002401214FF0C050FFF700
:101010000DFD0120FFF702FD0420FFF7E9FA45F678
:101020005A21884235D0FFF753FD0120FFF738FEE3
:1010300004E0601CC4B20A2000F08EFA4120FFF7E1
:10104000D7FD08B9FA2CF4DBFA2C01DB012038BDFE
:101050004FF48070FFF770FE0120FFF767FE00F08D
:1010600045F800F04DF801210320FFF7BBFF00F029
:101070003DF8FFF799FE47F6FF7000F027F800F003
:1010800035F8FFF79BFE45F65A210420FFF7BEFA1C
:1010900007E000F035F801210846FFF7A3FF00F054
:1010A00025F84FF4A060FFF7AFFC03208DF8000097
:1010B00000208DF801008DF8020001208DF803005A
:1010C0006846FFF769FC0020C1E7000000B5024652
:1010D000FFF76AFEC2F3034003490880091D0A8036
:1010E000FFF76CFE00BD00000828004000BF034869
:1010F000008800F020000028F9D070470428004044
:10110000074800884FF6F77108400549088000BF7E
:101110000348008800F008000028F9D0704700005C
:1011200004280040704710B500F002F810BD000020
:101130000CB50020019000903348006840F48030E6
:101140003149086000BF3048006800F4003000906A
:101150000198401C0190009818B90198B0F5A06F53
:10116000F1D12948006800F4003010B1012000904E
:1011700001E0002000900098012843D12348006836
:1011800040F01000214908600846006820F0030084
:1011900008600846006840F0020008601A4840688D
:1011A000194948600846406848600846406840F46D
:1011B000806048600846406820F47C10486008461B
:1011C000406840F4E81048600846006840F08070CD
:1011D000086000BF0C48006800F000700028F9D0DB
:1011E0000948406820F00300074948600846406805
:1011F00040F00200486000BF0348406800F00C0067
:101200000828F9D10CBD0000001002400020024067
:101210007047000010B51348006840F00100114904
:10122000086008464068104908400E494860084672
:1012300000680E4908400B4908600846006820F421
:10124000802008600846406820F4FE0048604FF4A3
:101250001F008860FFF767FF4FF0006004490860D7
:1012600010BD0000001002400000FFF8FFFFF6FE76
:1012700008ED00E010B540F225511F4800F0A0F83D
:10128000002838D01C4800F057F9C4B221461BA0F2
:10129000FEF7A4FF1A48008800F4004058BB184825
:1012A000008800F4804060B10A2C03D0002014496B
:1012B000088020E01248008840F40040104908806F
:1012C00019E00D2C06D10E48008840F480400C49EE
:1012D000088010E00A480088C0F30D0009490C544A
:1012E00007480088401C0649088008460088C7282F
:1012F00001DD0020088010BD00380140256300009A
:10130000180000201C00002010B586B00446012102
:1013100044F20400FFF79AFB4FF40070ADF814009C
:1013200003208DF8160018208DF8170005A91C4819
:10133000FFF74BFA4FF48060ADF8140004208DF8ED
:10134000170005A91648FFF740FA25208DF8000080
:1013500003208DF801008DF8020001208DF80300B4
:101360006846FFF719FB01940020ADF80800ADF8BE
:101370000A00ADF80C00ADF810000C20ADF80E001E
:1013800001A9084800F06CF8002240F225510548F8
:1013900000F040F80121034800F006F806B010BD47
:1013A000000801400038014021B1828942F4005216
:1013B000828104E082894DF6FF731A408281704772
:1013C00070B50246002400230025002040F66A166E
:1013D000B14200D100BFC1F3421501F01F03012645
:1013E00006FA03F3012D02D19689334006E0022D5F
:1013F00002D1168A334001E0968A33400C1201264E
:1014000006FA04F41688344013B10CB1012000E050
:10141000002070BDF0B50346002400260025002002
:1014200040F66A17B94200D100BF1846C1F3421412
:1014300001F01F06012707FA06F5012C01D10C3037
:1014400004E0022C01D1103000E014301AB107681A
:101450002F43076002E00768AF430760F0BD00005C
:101460002DE9F04786B005460E460024A24600BF8F
:10147000A1460027B08900B100BF2F462C8A4CF648
:10148000FF700440F08804432C82AC894EF6F310C0
:101490000440B08831890843718908430443AC8112
:1014A000AC8A4FF6FF400440B0890443AC8201A8E7
:1014B000FFF734FB1F48874202D1DDF810A001E09E
:1014C000DDF80CA0A88900F4004040B10AEBCA0086
:1014D00000EB0A1031684900B0FBF1F807E00AEBB5
:1014E000CA0000EB0A1031688900B0FBF1F86420F3
:1014F000B8FBF0F004012009642101FB1089A889E0
:1015000000F4004040B1322000EBC900B0FBF1F024
:1015100000F00700044308E0322000EB09106421CA
:10152000B0FBF1F000F00F0004432C8106B0BDE8E1
:10153000F08700000038014001468888C0F30800A9
:10154000704700BFFEE730380A2801D201207047FB
:101550000020704700BF704700B5034603E04FF41A
:101560007A7000F005F8181EA3F10103F7D100BD51
:1015700000EBC001C9004FF0E022516100219161F0
:101580000521116100BF4FF0E021096901F48031AC
:101590000029F8D004214FF0E022116170470000CB
:1015A00000BF054A128802F04002002AF9D0C2B2F8
:1015B000014B1B1D1A80704700380140FFF756FA97
:1015C000FFF7D2F9FFF7BAF9FFF77EF84FF4E130F1
:1015D000FFF79AFEFFF716FD0A25002000F060F8DD
:1015E000002000F06FF81748FFF7ECF8C4B220466F
:1015F00000F02CF825E001211348FFF771F900BB3A
:101600002846FFF7A9FF01210F48FFF769F9C0B984
:10161000601CC4B2032C00DD0024204600F016F844
:101620000121C820FFF76AF800BF01210648FFF733
:1016300057F90028F9D041F288314FF4FA70FEF7DB
:10164000F5FFD8E700F001080008014010B5044696
:1016500034B1012C0BD0022C10D0032C1CD114E07F
:10166000002000F01DF8002000F02CF815E001200B
:1016700000F016F8002000F025F80EE0012000F040
:101680000FF8012000F01EF807E0002000F008F835
:10169000012000F017F800E000BF00BF10BD0000FF
:1016A00010B50446012C05D1012211460448FFF76C
:1016B00020F904E0002201210148FFF71AF910BDCA
:1016C000000C014010B50446012C05D10122022175
:1016D0000448FFF70EF904E0002202210148FFF759
:1016E00008F910BD000C014021F00042A2F1605247
:1016F000B2F5801F01F0004328BFD2F17F6C0BD9F7
:101700005FEA001C43EAC20242EB507018BF704708
:1017100028BF20F001007047B2F5801FBCBF1846FB
:1017200070474FEA410C1CF5001F02D2084600F03A
:10173000DCBA70B500F020FA00000089FFF7F6BFB0
:101740004FF00040A0F58000704700002DE9C04137
:1017500030B4DFF8A0C23CEA111418BF3CEA1314FD
:1017600000F0EC8081EA03051CEA111444EAD57408
:1017700018BF1CEA131500F0C780A4EB05044FF056
:10178000004545EAC12145EAC32341EA505143EAF5
:10179000525304F17F74994204F500344FEAC0209B
:1017A0004FEAC22208BF904200F09C804FEA1365C6
:1017B0000FF24016765D4FEA134506FB05F7C7F1B9
:1017C000807706FB07F74FEAD737A7FB0368764217
:1017D000C8F58038A7FB06CE38BFA8F1010807FB83
:1017E00008E64FF0000EA6FB028CE6FB03CEDCF110
:1017F000000CCEF1004E38BFAEF1010EA6FB0C5826
:101800004FF000074FF00005E6FB0E87A1FB08C66E
:10181000A0FB07CE16EB0E0645F10005E1FB0765C0
:1018200015F1E04E7EBFA4F580345FEA46066D41B7
:1018300016F1800745F100054FEA17274FEA0666C3
:1018400047EA0567A6F1DE46B6F1805F4FEA152547
:101850001FD9384624F0010C05EBC471BCF1FE6FB2
:1018600001EB0C1102D8F0BCBDE8008124425CBF42
:1018700001F5801E9EEAC47F02D4F0BCBDE8008161
:10188000244238D4F0BCA1F1C041BDE8004100F0D1
:10189000C1B94FEAD22242EA43524FEAD323A7FB0F
:1018A00002864FEAD02040EA415007FB03661EEA59
:1018B0000E0F4FEAD12105FB026658BFA6EB00567A
:1018C000B6EB00564FEA520E4EEAC37E18EB0E0EF0
:1018D00056EB530EBDD518EB02085E417F1C55F147
:1018E0000005B6E74FF480154FF000074FF00006F3
:1018F0004FF00008ADE7F0BC4FF0000001F1C0412F
:1019000001F00041BDE8008111EA0C1F0CEA13153B
:1019100000D00CE013EA0C1F00F025804FF000000F
:10192000F0BC81EA030101F00041BDE80081F0BC98
:10193000BDE8004181EA030100F06CB9F0BCBDE8EC
:10194000004170B500F018F9097EFC3E00F007B8C0
:1019500081EA03014FF0000001F00041704781EA85
:10196000030100F057B9F0BCBDE800414FF00000A2
:1019700021497047FFFDFBF9F7F5F4F2F0EEEDEBCE
:10198000E9E8E6E4E3E1E0DEDDDBDAD8D7D5D4D37D
:10199000D1D0CFCDCCCBCAC8C7C6C5C4C2C1C0BFC9
:1019A000BEBDBCBBBAB9B8B7B6B5B4B3B2B1B0AFCF
:1019B000AEADACABAAA9A8A8A7A6A5A4A3A3A2A1B3
:1019C000A09F9F9E9D9C9C9B9A999998979796956E
:1019D00095949393929191908F8F8E8E8D8C8C8B0A
:1019E0008B8A898988888787868585848483838292
:1019F000828181800000FF070000F87FB0FA80F349
:101A000010FA03F10AD0C3F11D0303F580634FEA16
:101A100041504FEA035202EBD12170474FF00000D2
:101A200070470000DFF848C170B51CEA111E1EBFE8
:101A30001CEA13159EEA0C0F95EA0C0F00F06F805C
:101A400081EA030423EA4C134EEAD47E21EA4C11C6
:101A500041F4801143F48013AE44A1FB024CA0FB7F
:101A60000365AEF17F7E361955EB0C05A1FB034CE7
:101A70004CF10003A0FB021C16EB0C06654153F170
:101A80000003094218BF46F0010613F4007F0BD192
:101A90004FEA03314FEA0530340341EA155140EA79
:101AA00016506FF003020AE04FEAC3214FEAC52047
:101AB000F40241EA555140EA56506FF0020202EB3F
:101AC0002E4201EB025585EACE710AD05FEA440C42
:101AD00018BF24F0004450F1000041F1000120EA59
:101AE000D47040F2FE7C624500D270BDA84214BFA3
:101AF0004FF080444FF04044002E08BF0024BEF158
:101B0000806FA8BFA1F1C041BDE8704080F2828023
:101B10004FF0000001F1C04101F0004170479EEA22
:101B20000C0F0CEA131518BF95EA0C0F06D04FF0F6
:101B3000000081EA030E0EF0004170BD00F01CF8B9
:101B40008900013E00F007B800F009B84FEA430CE5
:101B50005FEA5C5C08D081EA030100F05BB84FEA01
:101B6000410C5FEA5C5CF6D14FF000000149704720
:101B70000000FF070000F87F0EF1020E2EF0030EAA
:101B80005EF8046B364205D4012A43EB030515F5D4
:101B9000001F12D8012841EB010C1CF5001F0CD8C6
:101BA0000ED14FEAD17C15F5001F0CEB4C0C0CF15B
:101BB000020C08BF4CEBD37C04E04FF0080C01E0B2
:101BC0004FEAD37C0CEB4C0526FA05F606F0070627
:101BD000B6F1040C06D20EEB860CBDE870404CF05A
:101BE000010C6047DFE80CF0090B02024FF00041E6
:101BF0004FF00000A1F5002170BD194610460128E4
:101C000051EB010418BFD4F5001484BF002001F08B
:101C1000004170BD0808A0F500114FEA310170477E
:101C2000C10DD1F19E0206DB4FEA002343F00043D1
:101C300023FA02F07047004207D54FEA4001B1F1A4
:101C4000FE4F02D24FF00000704710B500F007F8C9
:101C500049922480002070476FEA200070470EF1FF
:101C6000020E2EF0030E5EF8044B244204D44FEA19
:101C70004102B2F17F4F11D84FEA4003B3F17F4FD9
:101C80000CD80ED14FEAD07CB2F17F4F0CEB4C0C4C
:101C90000CF1020C08BF4CEBD17C04E04FF0080CB7
:101CA00001E04FEAD17C0CEB4C0324FA03F404F07E
:101CB0000704B4F1040C06D20EEB840CBDE810400E
:101CC0004CF0010C6047DFE80CF0070802024FF00F
:101CD0000040A0F5800010BD0846420018BFD2F1B8
:101CE000807288BF00F0004010BDFF2141EAD05053
:101CF000C0057047C2154FEA002318BF43F00043E8
:101D00000ED4D2F1BE0215D323FA02F1B2F1200CA7
:101D10002EBF23FA0CF0C2F1200C03FA0CF070472E
:101D20004FEA400CBCF1FE4F04D24FF000004FF0E0
:101D30000001704710B5FFF792FF00BF9224498061
:101D400000204FF0000170476FEAE07001467047D5
:101D50001F1C1F1E1F1E1F1F1E1F1E1F000303060A
:101D6000010406020500030504000008000000004D
:101D70000000000200010000100000009C1D00088F
:101D8000000000201C00000028010008B81D000809
:101D90001C0000203407000044010008000000007F
:101DA00001020304010203040607080902040608ED
:081DB00000000000000000002B
:04000005080000ED02
:00000001FF
